{
  "contractName": "CyclicalManyToOneElectionProcedure",
  "abi": [
    {
      "inputs": [
        {
          "internalType": "bytes32",
          "name": "_metadataIpfsHash",
          "type": "bytes32"
        },
        {
          "internalType": "uint8",
          "name": "_metadataHashFunction",
          "type": "uint8"
        },
        {
          "internalType": "uint8",
          "name": "_metadataHashSize",
          "type": "uint8"
        },
        {
          "internalType": "address payable",
          "name": "_votersOrganContract",
          "type": "address"
        },
        {
          "internalType": "address payable",
          "name": "_affectedOrganContract",
          "type": "address"
        },
        {
          "internalType": "uint256",
          "name": "_frequency",
          "type": "uint256"
        },
        {
          "internalType": "uint256",
          "name": "_votingDuration",
          "type": "uint256"
        },
        {
          "internalType": "uint256",
          "name": "_quorumSize",
          "type": "uint256"
        },
        {
          "internalType": "uint256",
          "name": "_mandatesMaximum",
          "type": "uint256"
        }
      ],
      "payable": false,
      "stateMutability": "nonpayable",
      "type": "constructor"
    },
    {
      "constant": true,
      "inputs": [],
      "name": "currentElection",
      "outputs": [
        {
          "internalType": "uint256",
          "name": "index",
          "type": "uint256"
        },
        {
          "internalType": "uint256",
          "name": "startDate",
          "type": "uint256"
        },
        {
          "internalType": "uint256",
          "name": "endDate",
          "type": "uint256"
        },
        {
          "internalType": "uint256",
          "name": "candidacyEndDate",
          "type": "uint256"
        },
        {
          "internalType": "bool",
          "name": "hasQuorum",
          "type": "bool"
        },
        {
          "internalType": "bool",
          "name": "isEnded",
          "type": "bool"
        },
        {
          "internalType": "uint256",
          "name": "votesTotal",
          "type": "uint256"
        },
        {
          "internalType": "uint256",
          "name": "votersTotal",
          "type": "uint256"
        },
        {
          "internalType": "uint256",
          "name": "electedCandidatesMaximum",
          "type": "uint256"
        },
        {
          "internalType": "uint256",
          "name": "minimumVotesToBeWinning",
          "type": "uint256"
        },
        {
          "internalType": "bytes32",
          "name": "metadataIpfsHash",
          "type": "bytes32"
        },
        {
          "internalType": "uint8",
          "name": "metadataHashFunction",
          "type": "uint8"
        },
        {
          "internalType": "uint8",
          "name": "metadataHashSize",
          "type": "uint8"
        }
      ],
      "payable": false,
      "stateMutability": "view",
      "type": "function"
    },
    {
      "constant": true,
      "inputs": [],
      "name": "cyclicalElectionData",
      "outputs": [
        {
          "internalType": "uint256",
          "name": "frequency",
          "type": "uint256"
        },
        {
          "internalType": "uint256",
          "name": "votingDuration",
          "type": "uint256"
        },
        {
          "internalType": "uint256",
          "name": "candidacyDuration",
          "type": "uint256"
        },
        {
          "internalType": "uint256",
          "name": "nextElectionDate",
          "type": "uint256"
        },
        {
          "internalType": "uint256",
          "name": "mandatesMaximum",
          "type": "uint256"
        },
        {
          "internalType": "uint256",
          "name": "quorumSize",
          "type": "uint256"
        },
        {
          "internalType": "uint256",
          "name": "votersToCandidatesRatio",
          "type": "uint256"
        },
        {
          "internalType": "address payable",
          "name": "votersOrganContract",
          "type": "address"
        },
        {
          "internalType": "address payable",
          "name": "affectedOrganContract",
          "type": "address"
        }
      ],
      "payable": false,
      "stateMutability": "view",
      "type": "function"
    },
    {
      "constant": true,
      "inputs": [],
      "name": "factory",
      "outputs": [
        {
          "internalType": "address",
          "name": "",
          "type": "address"
        }
      ],
      "payable": false,
      "stateMutability": "view",
      "type": "function"
    },
    {
      "constant": true,
      "inputs": [],
      "name": "getKelsenData",
      "outputs": [
        {
          "internalType": "bool",
          "name": "_isOrgan",
          "type": "bool"
        },
        {
          "internalType": "bool",
          "name": "_isProcedure",
          "type": "bool"
        },
        {
          "internalType": "uint8",
          "name": "_version",
          "type": "uint8"
        }
      ],
      "payable": false,
      "stateMutability": "view",
      "type": "function"
    },
    {
      "constant": true,
      "inputs": [],
      "name": "isOrgan",
      "outputs": [
        {
          "internalType": "bool",
          "name": "",
          "type": "bool"
        }
      ],
      "payable": false,
      "stateMutability": "view",
      "type": "function"
    },
    {
      "constant": true,
      "inputs": [],
      "name": "isProcedure",
      "outputs": [
        {
          "internalType": "bool",
          "name": "",
          "type": "bool"
        }
      ],
      "payable": false,
      "stateMutability": "view",
      "type": "function"
    },
    {
      "constant": true,
      "inputs": [],
      "name": "kelsenVersion",
      "outputs": [
        {
          "internalType": "uint8",
          "name": "",
          "type": "uint8"
        }
      ],
      "payable": false,
      "stateMutability": "view",
      "type": "function"
    },
    {
      "constant": true,
      "inputs": [],
      "name": "procedureData",
      "outputs": [
        {
          "internalType": "bytes32",
          "name": "metadataIpfsHash",
          "type": "bytes32"
        },
        {
          "internalType": "uint8",
          "name": "metadataHashFunction",
          "type": "uint8"
        },
        {
          "internalType": "uint8",
          "name": "metadataHashSize",
          "type": "uint8"
        },
        {
          "internalType": "address payable",
          "name": "admin",
          "type": "address"
        }
      ],
      "payable": false,
      "stateMutability": "view",
      "type": "function"
    },
    {
      "constant": false,
      "inputs": [
        {
          "internalType": "address payable",
          "name": "_admin",
          "type": "address"
        }
      ],
      "name": "updateAdmin",
      "outputs": [],
      "payable": false,
      "stateMutability": "nonpayable",
      "type": "function"
    },
    {
      "constant": false,
      "inputs": [
        {
          "internalType": "bytes32",
          "name": "_ipfsHash",
          "type": "bytes32"
        },
        {
          "internalType": "uint8",
          "name": "_hashFunction",
          "type": "uint8"
        },
        {
          "internalType": "uint8",
          "name": "_hashSize",
          "type": "uint8"
        }
      ],
      "name": "updateMetadata",
      "outputs": [],
      "payable": false,
      "stateMutability": "nonpayable",
      "type": "function"
    },
    {
      "constant": false,
      "inputs": [
        {
          "internalType": "bytes32",
          "name": "_metadataIpfsHash",
          "type": "bytes32"
        },
        {
          "internalType": "uint8",
          "name": "_metadataHashFunction",
          "type": "uint8"
        },
        {
          "internalType": "uint8",
          "name": "_metadataHashSize",
          "type": "uint8"
        }
      ],
      "name": "createElection",
      "outputs": [],
      "payable": false,
      "stateMutability": "nonpayable",
      "type": "function"
    },
    {
      "constant": false,
      "inputs": [
        {
          "internalType": "bytes32",
          "name": "_proposalIpfsHash",
          "type": "bytes32"
        },
        {
          "internalType": "uint8",
          "name": "_proposalHashFunction",
          "type": "uint8"
        },
        {
          "internalType": "uint8",
          "name": "_proposalHashSize",
          "type": "uint8"
        }
      ],
      "name": "presentCandidacy",
      "outputs": [],
      "payable": false,
      "stateMutability": "nonpayable",
      "type": "function"
    },
    {
      "constant": false,
      "inputs": [
        {
          "internalType": "address payable",
          "name": "_candidate",
          "type": "address"
        }
      ],
      "name": "vote",
      "outputs": [],
      "payable": false,
      "stateMutability": "nonpayable",
      "type": "function"
    },
    {
      "constant": false,
      "inputs": [],
      "name": "endElection",
      "outputs": [
        {
          "internalType": "address payable",
          "name": "electionWinner",
          "type": "address"
        }
      ],
      "payable": false,
      "stateMutability": "nonpayable",
      "type": "function"
    },
    {
      "constant": true,
      "inputs": [],
      "name": "getCurrentCandidates",
      "outputs": [
        {
          "internalType": "address payable[]",
          "name": "candidates",
          "type": "address[]"
        }
      ],
      "payable": false,
      "stateMutability": "view",
      "type": "function"
    },
    {
      "constant": true,
      "inputs": [],
      "name": "getLatestElectionIVotedIn",
      "outputs": [
        {
          "internalType": "uint256",
          "name": "electionIndex",
          "type": "uint256"
        }
      ],
      "payable": false,
      "stateMutability": "view",
      "type": "function"
    },
    {
      "constant": true,
      "inputs": [
        {
          "internalType": "address",
          "name": "_candidate",
          "type": "address"
        }
      ],
      "name": "getCandidacyProposal",
      "outputs": [
        {
          "internalType": "bytes32",
          "name": "ipfsHash",
          "type": "bytes32"
        },
        {
          "internalType": "uint8",
          "name": "hashFunction",
          "type": "uint8"
        },
        {
          "internalType": "uint8",
          "name": "hashSize",
          "type": "uint8"
        }
      ],
      "payable": false,
      "stateMutability": "view",
      "type": "function"
    }
  ],
  "bytecode": "0x608060405260036000806101000a81548160ff021916908360ff16021790555034801561002b57600080fd5b506040516112a73803806112a7833981810160405261012081101561004f57600080fd5b810190808051906020019092919080519060200190929190805190602001909291908051906020019092919080519060200190929190805190602001909291908051906020019092919080519060200190929190805190602001909291905050508888886000600181600060016101000a81548160ff02191690831515021790555080600060026101000a81548160ff021916908315150217905550505033600360006101000a81548173ffffffffffffffffffffffffffffffffffffffff021916908373ffffffffffffffffffffffffffffffffffffffff160217905550600173__ProcedureLibrary______________________63359a395d90918585856040518563ffffffff1660e01b8152600401808581526020018481526020018360ff1660ff1681526020018260ff1660ff16815260200194505050505060006040518083038186803b1580156101a457600080fd5b505af41580156101b8573d6000803e3d6000fd5b50505050505050600473__CyclicalElectionLibrary_______________632591ebaa90918888888888888b60020260006040518a63ffffffff1660e01b8152600401808a81526020018973ffffffffffffffffffffffffffffffffffffffff1673ffffffffffffffffffffffffffffffffffffffff1681526020018873ffffffffffffffffffffffffffffffffffffffff1673ffffffffffffffffffffffffffffffffffffffff168152602001878152602001868152602001858152602001848152602001838152602001828152602001995050505050505050505060006040518083038186803b1580156102ad57600080fd5b505af41580156102c1573d6000803e3d6000fd5b50505050505050505050505050610fca806102dd6000396000f3fe608060405234801561001057600080fd5b506004361061010b5760003560e01c806390f2ee22116100a2578063d36d2dd711610071578063d36d2dd714610415578063d384e4d41461045d578063e2f273bd146104bc578063f0badfde14610500578063fcae83a7146105ae5761010b565b806390f2ee221461033f578063b8b8846514610361578063c45a0155146103a9578063c91ebea8146103f35761010b565b806359f78468116100de57806359f78468146102225780635b07cda51461026c5780636dd7d8ea146102d7578063759913d61461031b5761010b565b80631687de3d14610110578063249abcf71461012e57806339c2ae7014610168578063440154fa146101b0575b600080fd5b610118610634565b6040518082815260200191505060405180910390f35b61013661067e565b6040518084151515158152602001831515151581526020018260ff1660ff168152602001935050505060405180910390f35b6101ae6004803603606081101561017e57600080fd5b8101908080359060200190929190803560ff169060200190929190803560ff1690602001909291905050506106bc565b005b6101f2600480360360208110156101c657600080fd5b81019080803573ffffffffffffffffffffffffffffffffffffffff16906020019092919050505061074f565b604051808481526020018360ff1660ff1681526020018260ff1660ff168152602001935050505060405180910390f35b61022a61084d565b604051808273ffffffffffffffffffffffffffffffffffffffff1673ffffffffffffffffffffffffffffffffffffffff16815260200191505060405180910390f35b610274610a81565b604051808581526020018460ff1660ff1681526020018360ff1660ff1681526020018273ffffffffffffffffffffffffffffffffffffffff1673ffffffffffffffffffffffffffffffffffffffff16815260200194505050505060405180910390f35b610319600480360360208110156102ed57600080fd5b81019080803573ffffffffffffffffffffffffffffffffffffffff169060200190929190505050610ad9565b005b610323610b83565b604051808260ff1660ff16815260200191505060405180910390f35b610347610b95565b604051808215151515815260200191505060405180910390f35b6103a76004803603606081101561037757600080fd5b8101908080359060200190929190803560ff169060200190929190803560ff169060200190929190505050610ba8565b005b6103b1610c44565b604051808273ffffffffffffffffffffffffffffffffffffffff1673ffffffffffffffffffffffffffffffffffffffff16815260200191505060405180910390f35b6103fb610c6a565b604051808215151515815260200191505060405180910390f35b61045b6004803603606081101561042b57600080fd5b8101908080359060200190929190803560ff169060200190929190803560ff169060200190929190505050610c7d565b005b610465610d19565b6040518080602001828103825283818151815260200191508051906020019060200280838360005b838110156104a857808201518184015260208101905061048d565b505050509050019250505060405180910390f35b6104fe600480360360208110156104d257600080fd5b81019080803573ffffffffffffffffffffffffffffffffffffffff169060200190929190505050610daa565b005b610508610e4b565b604051808a81526020018981526020018881526020018781526020018681526020018581526020018481526020018373ffffffffffffffffffffffffffffffffffffffff1673ffffffffffffffffffffffffffffffffffffffff1681526020018273ffffffffffffffffffffffffffffffffffffffff1673ffffffffffffffffffffffffffffffffffffffff168152602001995050505050505050505060405180910390f35b6105b6610ec7565b604051808e81526020018d81526020018c81526020018b81526020018a151515158152602001891515151581526020018881526020018781526020018681526020018581526020018481526020018360ff1660ff1681526020018260ff1660ff1681526020019d505050505050505050505050505060405180910390f35b60006004600a0160003373ffffffffffffffffffffffffffffffffffffffff1673ffffffffffffffffffffffffffffffffffffffff16815260200190815260200160002054905090565b60008060008060019054906101000a900460ff16600060029054906101000a900460ff166000809054906101000a900460ff16925092509250909192565b600173__ProcedureLibrary______________________63b8cc9a0290918585856040518563ffffffff1660e01b8152600401808581526020018481526020018360ff1660ff1681526020018260ff1660ff16815260200194505050505060006040518083038186803b15801561073257600080fd5b505af4158015610746573d6000803e3d6000fd5b50505050505050565b60008060006004600b0160008573ffffffffffffffffffffffffffffffffffffffff1673ffffffffffffffffffffffffffffffffffffffff168152602001908152602001600020600101546004600b0160008673ffffffffffffffffffffffffffffffffffffffff1673ffffffffffffffffffffffffffffffffffffffff16815260200190815260200160002060020160009054906101000a900460ff166004600b0160008773ffffffffffffffffffffffffffffffffffffffff1673ffffffffffffffffffffffffffffffffffffffff16815260200190815260200160002060020160019054906101000a900460ff169250925092509193909250565b60006060600473__CyclicalElectionLibrary_______________63eba30909909160106040518363ffffffff1660e01b8152600401808381526020018281526020019250505060006040518083038186803b1580156108ac57600080fd5b505af41580156108c0573d6000803e3d6000fd5b505050506040513d6000823e3d601f19601f8201168201806040525060208110156108ea57600080fd5b810190808051604051939291908464010000000082111561090a57600080fd5b8382019150602082018581111561092057600080fd5b825186602082028301116401000000008211171561093d57600080fd5b8083526020830192505050908051906020019060200280838360005b83811015610974578082015181840152602081019050610959565b5050505090500160405250505090506000601060000154905060106000808201600090556001820160009055600282016000905560038201600090556004820160006101000a81549060ff02191690556004820160016101000a81549060ff0219169055600582016000905560068201600090556007820160009055600882016000610a009190610f4f565b600982016000610a109190610f4f565b600a820160009055600b820160009055600c820160006101000a81549060ff0219169055600c820160016101000a81549060ff02191690555050806010600001819055506001825114610a64576000610a7a565b81600081518110610a7157fe5b60200260200101515b9250505090565b60018060000154908060010160009054906101000a900460ff16908060010160019054906101000a900460ff16908060010160029054906101000a900473ffffffffffffffffffffffffffffffffffffffff16905084565b600473__CyclicalElectionLibrary_______________63c89717f190916010846040518463ffffffff1660e01b8152600401808481526020018381526020018273ffffffffffffffffffffffffffffffffffffffff1673ffffffffffffffffffffffffffffffffffffffff168152602001935050505060006040518083038186803b158015610b6857600080fd5b505af4158015610b7c573d6000803e3d6000fd5b5050505050565b6000809054906101000a900460ff1681565b600060019054906101000a900460ff1681565b600473__CyclicalElectionLibrary_______________634833e17f909160108686866040518663ffffffff1660e01b8152600401808681526020018581526020018481526020018360ff1660ff1681526020018260ff1660ff1681526020019550505050505060006040518083038186803b158015610c2757600080fd5b505af4158015610c3b573d6000803e3d6000fd5b50505050505050565b600360009054906101000a900473ffffffffffffffffffffffffffffffffffffffff1681565b600060029054906101000a900460ff1681565b600473__CyclicalElectionLibrary_______________63994943c5909160108686866040518663ffffffff1660e01b8152600401808681526020018581526020018481526020018360ff1660ff1681526020018260ff1660ff1681526020019550505050505060006040518083038186803b158015610cfc57600080fd5b505af4158015610d10573d6000803e3d6000fd5b50505050505050565b60606010600801805480602002602001604051908101604052809291908181526020018280548015610da057602002820191906000526020600020905b8160009054906101000a900473ffffffffffffffffffffffffffffffffffffffff1673ffffffffffffffffffffffffffffffffffffffff1681526020019060010190808311610d56575b5050505050905090565b600173__ProcedureLibrary______________________638e956e929091836040518363ffffffff1660e01b8152600401808381526020018273ffffffffffffffffffffffffffffffffffffffff1673ffffffffffffffffffffffffffffffffffffffff1681526020019250505060006040518083038186803b158015610e3057600080fd5b505af4158015610e44573d6000803e3d6000fd5b5050505050565b60048060000154908060010154908060020154908060030154908060040154908060050154908060060154908060070160009054906101000a900473ffffffffffffffffffffffffffffffffffffffff16908060080160009054906101000a900473ffffffffffffffffffffffffffffffffffffffff16905089565b60108060000154908060010154908060020154908060030154908060040160009054906101000a900460ff16908060040160019054906101000a900460ff169080600501549080600601549080600701549080600a01549080600b01549080600c0160009054906101000a900460ff169080600c0160019054906101000a900460ff1690508d565b5080546000825590600052602060002090810190610f6d9190610f70565b50565b610f9291905b80821115610f8e576000816000905550600101610f76565b5090565b9056fea265627a7a7231582031de1f19d45b5a985e7f25b4bfe373d6c54b295be71f64a96f965b509a4902ca64736f6c634300050c0032",
  "source": "pragma solidity >=0.4.22 <0.7.0;\n\nimport \"../Procedure.sol\";\nimport \"../Organ.sol\";\nimport \"../libraries/CyclicalElectionLibrary.sol\";\nimport \"../ProcedureFactory.sol\";\n\ncontract CyclicalManyToOneElectionProcedure is Procedure {\n\n    using CyclicalElectionLibrary for CyclicalElectionLibrary.CyclicalElectionData;\n    using CyclicalElectionLibrary for CyclicalElectionLibrary.Candidacy;\n    using CyclicalElectionLibrary for CyclicalElectionLibrary.Election;\n\n    CyclicalElectionLibrary.CyclicalElectionData public cyclicalElectionData;\n    CyclicalElectionLibrary.Election public currentElection;\n\n    constructor (\n        bytes32 _metadataIpfsHash, uint8 _metadataHashFunction, uint8 _metadataHashSize,\n        address payable _votersOrganContract, address payable _affectedOrganContract,\n        uint _frequency, uint _votingDuration, uint _quorumSize, uint _mandatesMaximum\n    ) Procedure (_metadataIpfsHash, _metadataHashFunction, _metadataHashSize)\n        public\n    {\n        // Candidacy duration is set to 2 times voting duration.\n        // Voters to candidates ratio is set to 0 for many-to-one elections.\n        cyclicalElectionData.init(\n            _votersOrganContract, _affectedOrganContract,\n            _frequency, _votingDuration, _quorumSize, _mandatesMaximum, 2 * _votingDuration, 0\n        );\n    }\n\n    // Create a new election.\n    function createElection(bytes32 _metadataIpfsHash, uint8 _metadataHashFunction, uint8 _metadataHashSize)\n        public\n    {\n        cyclicalElectionData.createElection(currentElection, _metadataIpfsHash, _metadataHashFunction, _metadataHashSize);\n    }\n\n    // Present candidacy.\n    function presentCandidacy(bytes32 _proposalIpfsHash, uint8 _proposalHashFunction, uint8 _proposalHashSize)\n        public\n    {\n        cyclicalElectionData.presentCandidacy(currentElection, _proposalIpfsHash, _proposalHashFunction, _proposalHashSize);\n    }\n\n    // Vote for a candidate.\n    function vote(address payable _candidate)\n        public\n    {\n        cyclicalElectionData.voteManyToOne(currentElection, _candidate);\n    }\n\n    // The vote is finished and we close it. This triggers the outcome of the vote.\n    function endElection()\n        public returns (address payable electionWinner)\n    {\n        address payable[] memory electionWinners = cyclicalElectionData.endElection(currentElection);\n\n        // Cleaning contract state from election but keeping index.\n        uint electionIndex = currentElection.index;\n        delete currentElection;\n        currentElection.index = electionIndex;\n\n        return electionWinners.length == 1 ? electionWinners[0] : address(0);\n    }\n\n    /*\n        Utilities functions.\n    */\n\n    function getCurrentCandidates()\n        public view returns (address payable[] memory candidates)\n    {\n        return currentElection.candidates;\n    }\n\n    function getLatestElectionIVotedIn()\n        public view returns (uint electionIndex)\n    {\n        return cyclicalElectionData.latestElectionIndexes[msg.sender];\n    }\n\n    function getCandidacyProposal(address _candidate)\n        public view returns (bytes32 ipfsHash, uint8 hashFunction, uint8 hashSize)\n    {\n        return (\n            cyclicalElectionData.candidacies[_candidate].proposalIpfsHash,\n            cyclicalElectionData.candidacies[_candidate].proposalHashFunction,\n            cyclicalElectionData.candidacies[_candidate].proposalHashSize\n        );\n    }\n}\n\ncontract CyclicalManyToOneElectionProcedureFactory is ProcedureFactory {\n    function createProcedure(\n        address payable _votersOrganContract, address payable _affectedOrganContract,\n        uint _frequency, uint _votingDuration, uint _quorumSize, uint _mandatesMaximum,\n        bytes32 _metadataIpfsHash, uint8 _metadataHashFunction, uint8 _metadataHashSize\n    )\n        public returns (address)\n    {\n        // @TODO : Add check that gas can cover deployment.\n        address _contractAddress = address(new CyclicalManyToOneElectionProcedure(\n            _metadataIpfsHash, _metadataHashFunction, _metadataHashSize,\n            _votersOrganContract, _affectedOrganContract,\n            _frequency, _votingDuration, _quorumSize, _mandatesMaximum\n        ));\n        // Call ProcedureFactory.registerProcedure to register the new contract and returns an address.\n        return registerProcedure(_contractAddress);\n    }\n}",
  "sourcePath": "/Users/alex/Code/organigr.am/kelsen/contracts/procedures/CyclicalManyToOneElection.sol",
  "compiler": {
    "name": "solc",
    "version": "0.5.12+commit.7709ece9.Emscripten.clang"
  },
  "schemaVersion": "3.0.19",
  "updatedAt": "2020-03-08T14:18:42.785Z",
  "devdoc": {
    "methods": {}
  },
  "userdoc": {
    "methods": {}
  }
}