{
  "contractName": "KelsenFactory",
  "abi": [
    {
      "inputs": [],
      "payable": false,
      "stateMutability": "nonpayable",
      "type": "constructor"
    },
    {
      "anonymous": false,
      "inputs": [
        {
          "indexed": false,
          "internalType": "address",
          "name": "_from",
          "type": "address"
        },
        {
          "indexed": false,
          "internalType": "address payable",
          "name": "_address",
          "type": "address"
        }
      ],
      "name": "organCreated",
      "type": "event"
    },
    {
      "anonymous": false,
      "inputs": [
        {
          "indexed": false,
          "internalType": "address",
          "name": "_from",
          "type": "address"
        },
        {
          "indexed": false,
          "internalType": "string",
          "name": "_name",
          "type": "string"
        },
        {
          "indexed": false,
          "internalType": "address",
          "name": "_contractAddress",
          "type": "address"
        },
        {
          "indexed": false,
          "internalType": "uint16",
          "name": "_version",
          "type": "uint16"
        }
      ],
      "name": "procedureFactoryRegistered",
      "type": "event"
    },
    {
      "constant": true,
      "inputs": [
        {
          "internalType": "uint256",
          "name": "",
          "type": "uint256"
        }
      ],
      "name": "organs",
      "outputs": [
        {
          "internalType": "address payable",
          "name": "",
          "type": "address"
        }
      ],
      "payable": false,
      "stateMutability": "view",
      "type": "function"
    },
    {
      "constant": true,
      "inputs": [],
      "name": "owner",
      "outputs": [
        {
          "internalType": "address",
          "name": "",
          "type": "address"
        }
      ],
      "payable": false,
      "stateMutability": "view",
      "type": "function"
    },
    {
      "constant": true,
      "inputs": [],
      "name": "proceduresCount",
      "outputs": [
        {
          "internalType": "uint256",
          "name": "",
          "type": "uint256"
        }
      ],
      "payable": false,
      "stateMutability": "view",
      "type": "function"
    },
    {
      "constant": true,
      "inputs": [
        {
          "internalType": "uint256",
          "name": "",
          "type": "uint256"
        }
      ],
      "name": "proceduresNames",
      "outputs": [
        {
          "internalType": "string",
          "name": "",
          "type": "string"
        }
      ],
      "payable": false,
      "stateMutability": "view",
      "type": "function"
    },
    {
      "constant": false,
      "inputs": [
        {
          "internalType": "bytes32",
          "name": "_metadataIpfsHash",
          "type": "bytes32"
        },
        {
          "internalType": "uint8",
          "name": "_metadataHashFunction",
          "type": "uint8"
        },
        {
          "internalType": "uint8",
          "name": "_metadataHashSize",
          "type": "uint8"
        }
      ],
      "name": "createOrgan",
      "outputs": [
        {
          "internalType": "address payable",
          "name": "",
          "type": "address"
        }
      ],
      "payable": false,
      "stateMutability": "nonpayable",
      "type": "function"
    },
    {
      "constant": true,
      "inputs": [
        {
          "internalType": "string",
          "name": "_name",
          "type": "string"
        }
      ],
      "name": "getFactoryData",
      "outputs": [
        {
          "internalType": "address",
          "name": "contractAddress",
          "type": "address"
        },
        {
          "internalType": "uint16",
          "name": "version",
          "type": "uint16"
        }
      ],
      "payable": false,
      "stateMutability": "view",
      "type": "function"
    },
    {
      "constant": false,
      "inputs": [
        {
          "internalType": "string",
          "name": "_name",
          "type": "string"
        },
        {
          "internalType": "address",
          "name": "_contractAddress",
          "type": "address"
        },
        {
          "internalType": "uint16",
          "name": "_version",
          "type": "uint16"
        }
      ],
      "name": "registerProcedureFactory",
      "outputs": [],
      "payable": false,
      "stateMutability": "nonpayable",
      "type": "function"
    }
  ],
  "bytecode": "0x608060405234801561001057600080fd5b50336000806101000a81548173ffffffffffffffffffffffffffffffffffffffff021916908373ffffffffffffffffffffffffffffffffffffffff16021790555061279c806100606000396000f3fe608060405234801561001057600080fd5b506004361061007d5760003560e01c80635d505ae91161005b5780635d505ae91461021f5780638da5cb5b14610308578063b3a3b32514610352578063ccbfc0fd146103705761007d565b8063131861f1146100825780631d1a60ab146101295780634fbd241d146101b1575b600080fd5b6100ae6004803603602081101561009857600080fd5b810190808035906020019092919050505061047a565b6040518080602001828103825283818151815260200191508051906020019080838360005b838110156100ee5780820151818401526020810190506100d3565b50505050905090810190601f16801561011b5780820380516001836020036101000a031916815260200191505b509250505060405180910390f35b61016f6004803603606081101561013f57600080fd5b8101908080359060200190929190803560ff169060200190929190803560ff169060200190929190505050610533565b604051808273ffffffffffffffffffffffffffffffffffffffff1673ffffffffffffffffffffffffffffffffffffffff16815260200191505060405180910390f35b6101dd600480360360208110156101c757600080fd5b81019080803590602001909291905050506106c4565b604051808273ffffffffffffffffffffffffffffffffffffffff1673ffffffffffffffffffffffffffffffffffffffff16815260200191505060405180910390f35b6103066004803603606081101561023557600080fd5b810190808035906020019064010000000081111561025257600080fd5b82018360208201111561026457600080fd5b8035906020019184600183028401116401000000008311171561028657600080fd5b91908080601f016020809104026020016040519081016040528093929190818152602001838380828437600081840152601f19601f820116905080830192505050505050509192919290803573ffffffffffffffffffffffffffffffffffffffff169060200190929190803561ffff169060200190929190505050610700565b005b610310610ca9565b604051808273ffffffffffffffffffffffffffffffffffffffff1673ffffffffffffffffffffffffffffffffffffffff16815260200191505060405180910390f35b61035a610cce565b6040518082815260200191505060405180910390f35b6104296004803603602081101561038657600080fd5b81019080803590602001906401000000008111156103a357600080fd5b8201836020820111156103b557600080fd5b803590602001918460018302840111640100000000831117156103d757600080fd5b91908080601f016020809104026020016040519081016040528093929190818152602001838380828437600081840152601f19601f820116905080830192505050505050509192919290505050610cd4565b604051808373ffffffffffffffffffffffffffffffffffffffff1673ffffffffffffffffffffffffffffffffffffffff1681526020018261ffff1661ffff1681526020019250505060405180910390f35b6002818154811061048757fe5b906000526020600020016000915090508054600181600116156101000203166002900480601f01602080910402602001604051908101604052809291908181526020018280546001816001161561010002031660029004801561052b5780601f106105005761010080835404028352916020019161052b565b820191906000526020600020905b81548152906001019060200180831161050e57829003601f168201915b505050505081565b6000803385858560405161054690610ddf565b808573ffffffffffffffffffffffffffffffffffffffff1673ffffffffffffffffffffffffffffffffffffffff1681526020018481526020018360ff1660ff1681526020018260ff1660ff168152602001945050505050604051809103906000f0801580156105b9573d6000803e3d6000fd5b50905060018190806001815401808255809150509060018203906000526020600020016000909192909190916101000a81548173ffffffffffffffffffffffffffffffffffffffff021916908373ffffffffffffffffffffffffffffffffffffffff160217905550507f104fd1b118266b52d8cfeb1932dc472ff615f0b112f880c3beb02b58e086e7de3382604051808373ffffffffffffffffffffffffffffffffffffffff1673ffffffffffffffffffffffffffffffffffffffff1681526020018273ffffffffffffffffffffffffffffffffffffffff1673ffffffffffffffffffffffffffffffffffffffff1681526020019250505060405180910390a1809150509392505050565b600181815481106106d157fe5b906000526020600020016000915054906101000a900473ffffffffffffffffffffffffffffffffffffffff1681565b6000809054906101000a900473ffffffffffffffffffffffffffffffffffffffff1673ffffffffffffffffffffffffffffffffffffffff163373ffffffffffffffffffffffffffffffffffffffff16146107c2576040517f08c379a000000000000000000000000000000000000000000000000000000000815260040180806020018281038252600f8152602001807f4e6f7420617574686f72697a65642e000000000000000000000000000000000081525060200191505060405180910390fd5b6107ca610dec565b6004846040518082805190602001908083835b6020831061080057805182526020820191506020810190506020830392506107dd565b6001836020036101000a03801982511681845116808217855250505050505090500191505090815260200160405180910390206040518060400160405290816000820160009054906101000a900473ffffffffffffffffffffffffffffffffffffffff1673ffffffffffffffffffffffffffffffffffffffff1673ffffffffffffffffffffffffffffffffffffffff1681526020016000820160149054906101000a900461ffff1661ffff1661ffff16815250509050600073ffffffffffffffffffffffffffffffffffffffff16816000015173ffffffffffffffffffffffffffffffffffffffff16146109c057806020015161ffff168261ffff161161096f576040517f08c379a00000000000000000000000000000000000000000000000000000000081526004018080602001828103825260158152602001807f57726f6e672076657273696f6e206e756d6265722e000000000000000000000081525060200191505060405180910390fd5b81816020019061ffff16908161ffff168152505082816000019073ffffffffffffffffffffffffffffffffffffffff16908173ffffffffffffffffffffffffffffffffffffffff1681525050610ab8565b60018261ffff161015610a3b576040517f08c379a00000000000000000000000000000000000000000000000000000000081526004018080602001828103825260158152602001807f57726f6e672076657273696f6e206e756d6265722e000000000000000000000081525060200191505060405180910390fd5b60405180604001604052808473ffffffffffffffffffffffffffffffffffffffff1681526020018361ffff1681525090506002849080600181540180825580915050906001820390600052602060002001600090919290919091509080519060200190610aa9929190610e20565b50506001600354016003819055505b806004856040518082805190602001908083835b60208310610aef5780518252602082019150602081019050602083039250610acc565b6001836020036101000a038019825116818451168082178552505050505050905001915050908152602001604051809103902060008201518160000160006101000a81548173ffffffffffffffffffffffffffffffffffffffff021916908373ffffffffffffffffffffffffffffffffffffffff16021790555060208201518160000160146101000a81548161ffff021916908361ffff1602179055509050507ffc25edac021fedc6299493c5010d9950f37a9cff0888aeeb736188ec703d0fc033858585604051808573ffffffffffffffffffffffffffffffffffffffff1673ffffffffffffffffffffffffffffffffffffffff168152602001806020018473ffffffffffffffffffffffffffffffffffffffff1673ffffffffffffffffffffffffffffffffffffffff1681526020018361ffff1661ffff168152602001828103825285818151815260200191508051906020019080838360005b83811015610c66578082015181840152602081019050610c4b565b50505050905090810190601f168015610c935780820380516001836020036101000a031916815260200191505b509550505050505060405180910390a150505050565b6000809054906101000a900473ffffffffffffffffffffffffffffffffffffffff1681565b60035481565b600080610cdf610dec565b6004846040518082805190602001908083835b60208310610d155780518252602082019150602081019050602083039250610cf2565b6001836020036101000a03801982511681845116808217855250505050505090500191505090815260200160405180910390206040518060400160405290816000820160009054906101000a900473ffffffffffffffffffffffffffffffffffffffff1673ffffffffffffffffffffffffffffffffffffffff1673ffffffffffffffffffffffffffffffffffffffff1681526020016000820160149054906101000a900461ffff1661ffff1661ffff16815250509050806000015181602001519250925050915091565b6118a280610ec683390190565b6040518060400160405280600073ffffffffffffffffffffffffffffffffffffffff168152602001600061ffff1681525090565b828054600181600116156101000203166002900490600052602060002090601f016020900481019282601f10610e6157805160ff1916838001178555610e8f565b82800160010185558215610e8f579182015b82811115610e8e578251825591602001919060010190610e73565b5b509050610e9c9190610ea0565b5090565b610ec291905b80821115610ebe576000816000905550600101610ea6565b5090565b9056fe608060405260036000806101000a81548160ff021916908360ff16021790555034801561002b57600080fd5b506040516118a23803806118a28339818101604052608081101561004e57600080fd5b81019080805190602001909291908051906020019092919080519060200190929190805190602001909291905050506001600081600060016101000a81548160ff02191690831515021790555080600060026101000a81548160ff021916908315150217905550505033600960006101000a81548173ffffffffffffffffffffffffffffffffffffffff021916908373ffffffffffffffffffffffffffffffffffffffff160217905550600173__OrganLibrary__________________________6374771eb49091868686866040518663ffffffff1660e01b8152600401808681526020018573ffffffffffffffffffffffffffffffffffffffff1673ffffffffffffffffffffffffffffffffffffffff1681526020018481526020018360ff1660ff1681526020018260ff1660ff1681526020019550505050505060006040518083038186803b1580156101a257600080fd5b505af41580156101b6573d6000803e3d6000fd5b50505050505050506116d5806101cd6000396000f3fe6080604052600436106101355760003560e01c8063759913d6116100ab578063c45a01551161006f578063c45a015514610815578063c91ebea81461086c578063cbae782b1461089b578063e2a2f0a314610900578063f3fef3a314610951578063f720f80b146109ac57610135565b8063759913d61461068057806379524d2d146106b157806390f2ee22146107325780639e9b8aed14610761578063a08c3cb51461078c57610135565b80635185ee3f116100fd5780635185ee3f146103815780635a52ceea146104005780636091112d1461049c5780636c49e087146104d75780636f2a4d5f1461055657806371e7f374146105df57610135565b80631785f53c146101a1578063249abcf7146101f257806324d7806c1461023957806339c2ae70146102c35780633f7819a114610318575b600173__OrganLibrary__________________________63b8bf0edf90916040518263ffffffff1660e01b81526004018082815260200191505060006040518083038186803b15801561018757600080fd5b505af415801561019b573d6000803e3d6000fd5b50505050005b3480156101ad57600080fd5b506101f0600480360360208110156101c457600080fd5b81019080803573ffffffffffffffffffffffffffffffffffffffff169060200190929190505050610a20565b005b3480156101fe57600080fd5b50610207610ac1565b6040518084151515158152602001831515151581526020018260ff1660ff168152602001935050505060405180910390f35b34801561024557600080fd5b506102886004803603602081101561025c57600080fd5b81019080803573ffffffffffffffffffffffffffffffffffffffff169060200190929190505050610aff565b604051808515151515815260200184151515158152602001831515151581526020018215151515815260200194505050505060405180910390f35b3480156102cf57600080fd5b50610316600480360360608110156102e657600080fd5b8101908080359060200190929190803560ff169060200190929190803560ff169060200190929190505050610c60565b005b34801561032457600080fd5b5061037f6004803603606081101561033b57600080fd5b81019080803573ffffffffffffffffffffffffffffffffffffffff169060200190929190803515159060200190929190803515159060200190929190505050610cf3565b005b34801561038d57600080fd5b50610396610dae565b604051808673ffffffffffffffffffffffffffffffffffffffff1673ffffffffffffffffffffffffffffffffffffffff1681526020018581526020018460ff1660ff1681526020018360ff1660ff1681526020018281526020019550505050505060405180910390f35b34801561040c57600080fd5b506104396004803603602081101561042357600080fd5b8101908080359060200190929190505050610e0c565b604051808573ffffffffffffffffffffffffffffffffffffffff1673ffffffffffffffffffffffffffffffffffffffff1681526020018481526020018360ff1660ff1681526020018260ff1660ff16815260200194505050505060405180910390f35b3480156104a857600080fd5b506104d5600480360360208110156104bf57600080fd5b8101908080359060200190929190505050610ee3565b005b3480156104e357600080fd5b50610554600480360360a08110156104fa57600080fd5b8101908080359060200190929190803573ffffffffffffffffffffffffffffffffffffffff16906020019092919080359060200190929190803560ff169060200190929190803560ff169060200190929190505050610f58565b005b34801561056257600080fd5b506105dd6004803603608081101561057957600080fd5b81019080803573ffffffffffffffffffffffffffffffffffffffff169060200190929190803573ffffffffffffffffffffffffffffffffffffffff169060200190929190803515159060200190929190803515159060200190929190505050611029565b005b3480156105eb57600080fd5b5061067e600480360360c081101561060257600080fd5b81019080803573ffffffffffffffffffffffffffffffffffffffff169060200190929190803573ffffffffffffffffffffffffffffffffffffffff169060200190929190803515159060200190929190803515159060200190929190803515159060200190929190803515159060200190929190505050611119565b005b34801561068c57600080fd5b50610695611223565b604051808260ff1660ff16815260200191505060405180910390f35b3480156106bd57600080fd5b50610730600480360360a08110156106d457600080fd5b81019080803573ffffffffffffffffffffffffffffffffffffffff169060200190929190803515159060200190929190803515159060200190929190803515159060200190929190803515159060200190929190505050611235565b005b34801561073e57600080fd5b5061074761130a565b604051808215151515815260200191505060405180910390f35b34801561076d57600080fd5b5061077661131d565b6040518082815260200191505060405180910390f35b34801561079857600080fd5b506107ff600480360360808110156107af57600080fd5b81019080803573ffffffffffffffffffffffffffffffffffffffff16906020019092919080359060200190929190803560ff169060200190929190803560ff16906020019092919050505061132d565b6040518082815260200191505060405180910390f35b34801561082157600080fd5b5061082a61141e565b604051808273ffffffffffffffffffffffffffffffffffffffff1673ffffffffffffffffffffffffffffffffffffffff16815260200191505060405180910390f35b34801561087857600080fd5b50610881611444565b604051808215151515815260200191505060405180910390f35b3480156108a757600080fd5b506108ea600480360360208110156108be57600080fd5b81019080803573ffffffffffffffffffffffffffffffffffffffff169060200190929190505050611457565b6040518082815260200191505060405180910390f35b34801561090c57600080fd5b5061094f6004803603602081101561092357600080fd5b81019080803573ffffffffffffffffffffffffffffffffffffffff1690602001909291905050506114a3565b005b34801561095d57600080fd5b506109aa6004803603604081101561097457600080fd5b81019080803573ffffffffffffffffffffffffffffffffffffffff16906020019092919080359060200190929190505050611544565b005b3480156109b857600080fd5b506109fb600480360360208110156109cf57600080fd5b81019080803573ffffffffffffffffffffffffffffffffffffffff1690602001909291905050506115ee565b6040518083151515158152602001821515151581526020019250505060405180910390f35b600173__OrganLibrary__________________________63af29f2799091836040518363ffffffff1660e01b8152600401808381526020018273ffffffffffffffffffffffffffffffffffffffff1673ffffffffffffffffffffffffffffffffffffffff1681526020019250505060006040518083038186803b158015610aa657600080fd5b505af4158015610aba573d6000803e3d6000fd5b5050505050565b60008060008060019054906101000a900460ff16600060029054906101000a900460ff166000809054906101000a900460ff16925092509250909192565b600080600080600160050160008673ffffffffffffffffffffffffffffffffffffffff1673ffffffffffffffffffffffffffffffffffffffff16815260200190815260200160002060000160009054906101000a900460ff16600160050160008773ffffffffffffffffffffffffffffffffffffffff1673ffffffffffffffffffffffffffffffffffffffff16815260200190815260200160002060000160019054906101000a900460ff16600160050160008873ffffffffffffffffffffffffffffffffffffffff1673ffffffffffffffffffffffffffffffffffffffff16815260200190815260200160002060000160039054906101000a900460ff16600160050160008973ffffffffffffffffffffffffffffffffffffffff1673ffffffffffffffffffffffffffffffffffffffff16815260200190815260200160002060000160029054906101000a900460ff1693509350935093509193509193565b600173__OrganLibrary__________________________63f59263df90918585856040518563ffffffff1660e01b8152600401808581526020018481526020018360ff1660ff1681526020018260ff1660ff16815260200194505050505060006040518083038186803b158015610cd657600080fd5b505af4158015610cea573d6000803e3d6000fd5b50505050505050565b600173__OrganLibrary__________________________637b57ef1e90918585856040518563ffffffff1660e01b8152600401808581526020018473ffffffffffffffffffffffffffffffffffffffff1673ffffffffffffffffffffffffffffffffffffffff168152602001831515151581526020018215151515815260200194505050505060006040518083038186803b158015610d9157600080fd5b505af4158015610da5573d6000803e3d6000fd5b50505050505050565b60018060000160009054906101000a900473ffffffffffffffffffffffffffffffffffffffff16908060010154908060020160009054906101000a900460ff16908060020160019054906101000a900460ff16908060030154905085565b60008060008060016006018581548110610e2257fe5b906000526020600020906003020160000160009054906101000a900473ffffffffffffffffffffffffffffffffffffffff1660016006018681548110610e6457fe5b90600052602060002090600302016001015460016006018781548110610e8657fe5b906000526020600020906003020160020160009054906101000a900460ff1660016006018881548110610eb557fe5b906000526020600020906003020160020160019054906101000a900460ff1693509350935093509193509193565b600173__OrganLibrary__________________________63035ad0469091836040518363ffffffff1660e01b8152600401808381526020018281526020019250505060006040518083038186803b158015610f3d57600080fd5b505af4158015610f51573d6000803e3d6000fd5b5050505050565b600173__OrganLibrary__________________________630b3a4a64909187878787876040518763ffffffff1660e01b8152600401808781526020018681526020018573ffffffffffffffffffffffffffffffffffffffff1673ffffffffffffffffffffffffffffffffffffffff1681526020018481526020018360ff1660ff1681526020018260ff1660ff168152602001965050505050505060006040518083038186803b15801561100a57600080fd5b505af415801561101e573d6000803e3d6000fd5b505050505050505050565b600173__OrganLibrary__________________________638e9f475c9091868686866040518663ffffffff1660e01b8152600401808681526020018573ffffffffffffffffffffffffffffffffffffffff1673ffffffffffffffffffffffffffffffffffffffff1681526020018473ffffffffffffffffffffffffffffffffffffffff1673ffffffffffffffffffffffffffffffffffffffff16815260200183151515158152602001821515151581526020019550505050505060006040518083038186803b1580156110fb57600080fd5b505af415801561110f573d6000803e3d6000fd5b5050505050505050565b600173__OrganLibrary__________________________63a3131c1d90918888888888886040518863ffffffff1660e01b8152600401808881526020018773ffffffffffffffffffffffffffffffffffffffff1673ffffffffffffffffffffffffffffffffffffffff1681526020018673ffffffffffffffffffffffffffffffffffffffff1673ffffffffffffffffffffffffffffffffffffffff1681526020018515151515815260200184151515158152602001831515151581526020018215151515815260200197505050505050505060006040518083038186803b15801561120357600080fd5b505af4158015611217573d6000803e3d6000fd5b50505050505050505050565b6000809054906101000a900460ff1681565b600173__OrganLibrary__________________________6350eb96bb909187878787876040518763ffffffff1660e01b8152600401808781526020018673ffffffffffffffffffffffffffffffffffffffff1673ffffffffffffffffffffffffffffffffffffffff16815260200185151515158152602001841515151581526020018315151515815260200182151515158152602001965050505050505060006040518083038186803b1580156112eb57600080fd5b505af41580156112ff573d6000803e3d6000fd5b505050505050505050565b600060019054906101000a900460ff1681565b6000600160060180549050905090565b6000600173__OrganLibrary__________________________6391a3c0729091878787876040518663ffffffff1660e01b8152600401808681526020018573ffffffffffffffffffffffffffffffffffffffff1673ffffffffffffffffffffffffffffffffffffffff1681526020018481526020018360ff1660ff1681526020018260ff1660ff1681526020019550505050505060206040518083038186803b1580156113d957600080fd5b505af41580156113ed573d6000803e3d6000fd5b505050506040513d602081101561140357600080fd5b81019080805190602001909291905050509050949350505050565b600960009054906101000a900473ffffffffffffffffffffffffffffffffffffffff1681565b600060029054906101000a900460ff1681565b6000600160070160008373ffffffffffffffffffffffffffffffffffffffff1673ffffffffffffffffffffffffffffffffffffffff168152602001908152602001600020549050919050565b600173__OrganLibrary__________________________63db346b8c9091836040518363ffffffff1660e01b8152600401808381526020018273ffffffffffffffffffffffffffffffffffffffff1673ffffffffffffffffffffffffffffffffffffffff1681526020019250505060006040518083038186803b15801561152957600080fd5b505af415801561153d573d6000803e3d6000fd5b5050505050565b600173__OrganLibrary__________________________63869d0626909184846040518463ffffffff1660e01b8152600401808481526020018373ffffffffffffffffffffffffffffffffffffffff1673ffffffffffffffffffffffffffffffffffffffff168152602001828152602001935050505060006040518083038186803b1580156115d257600080fd5b505af41580156115e6573d6000803e3d6000fd5b505050505050565b600080600160040160008473ffffffffffffffffffffffffffffffffffffffff1673ffffffffffffffffffffffffffffffffffffffff16815260200190815260200160002060000160009054906101000a900460ff16600160040160008573ffffffffffffffffffffffffffffffffffffffff1673ffffffffffffffffffffffffffffffffffffffff16815260200190815260200160002060000160019054906101000a900460ff169150915091509156fea265627a7a723158206b9ee262b753f9b06e894dcbef2fe1276ffe35eb21a5ee8053435aec1649756564736f6c634300050c0032a265627a7a72315820b5d85dfb3b5b0f61fdfe75154979f35ee816f65896eff7dcc024242c0cfce0cb64736f6c634300050c0032",
  "source": "pragma solidity >=0.4.22 <0.7.0;\n\n/// @title Kelsen factory contract for on-chain deployments.\nimport \"./Organ.sol\";\n\ncontract KelsenFactory {\n\n    struct FactoryData {\n        address contractAddress;\n        uint16 version;\n    }\n\n    // Store organs created directly.\n    address public owner;\n    address payable[] public organs;\n    // Store procedures factories.\n    string[] public proceduresNames;\n    uint public proceduresCount;\n    mapping (string => FactoryData) proceduresFactories;\n\n    // Events.\n    event organCreated(address _from, address payable _address);\n    event procedureFactoryRegistered(address _from, string _name, address _contractAddress, uint16 _version);\n\n    constructor () public {\n        owner = msg.sender;\n    }\n\n    function createOrgan(bytes32 _metadataIpfsHash, uint8 _metadataHashFunction, uint8 _metadataHashSize)\n        public returns (address payable)\n    {\n        // @TODO : Check if enough gas.\n\n        // Create instance, add instance to array, return instance.\n        address payable organAddress = address(new Organ(msg.sender, _metadataIpfsHash, _metadataHashFunction, _metadataHashSize));\n        organs.push(organAddress);\n\n        emit organCreated(msg.sender, organAddress);\n        return organAddress;\n    }\n\n    function getFactoryData(string memory _name)\n        public view returns (address contractAddress, uint16 version)\n    {\n        FactoryData memory factoryData = proceduresFactories[_name];\n        return (\n            factoryData.contractAddress,\n            factoryData.version\n        );\n    }\n\n    function registerProcedureFactory(string memory _name, address _contractAddress, uint16 _version)\n        public\n    {\n        require(msg.sender == owner, \"Not authorized.\");\n        FactoryData memory factoryData = proceduresFactories[_name];\n        if (factoryData.contractAddress != address(0)) {\n            require(_version > factoryData.version, \"Wrong version number.\");\n            factoryData.version = _version;\n            factoryData.contractAddress = _contractAddress;\n        }\n        else {\n            require(_version >= 1, \"Wrong version number.\");\n            factoryData = FactoryData({\n                contractAddress: _contractAddress,\n                version: _version\n            });\n            // Save name of factory.\n            proceduresNames.push(_name);\n            proceduresCount = proceduresCount + 1;\n        }\n        proceduresFactories[_name] = factoryData;\n\n        emit procedureFactoryRegistered(msg.sender, _name, _contractAddress, _version);\n    }\n}",
  "sourcePath": "/Users/alex/Code/organigr.am/kelsen/contracts/KelsenFactory.sol",
  "compiler": {
    "name": "solc",
    "version": "0.5.12+commit.7709ece9.Emscripten.clang"
  },
  "schemaVersion": "3.0.19",
  "updatedAt": "2020-03-08T14:18:42.679Z",
  "devdoc": {
    "methods": {}
  },
  "userdoc": {
    "methods": {}
  }
}