{
  "contractName": "Organ",
  "abi": [
    {
      "inputs": [
        {
          "internalType": "address",
          "name": "_owner",
          "type": "address"
        },
        {
          "internalType": "bytes32",
          "name": "_metadataIpfsHash",
          "type": "bytes32"
        },
        {
          "internalType": "uint8",
          "name": "_metadataHashFunction",
          "type": "uint8"
        },
        {
          "internalType": "uint8",
          "name": "_metadataHashSize",
          "type": "uint8"
        }
      ],
      "payable": false,
      "stateMutability": "nonpayable",
      "type": "constructor"
    },
    {
      "payable": true,
      "stateMutability": "payable",
      "type": "fallback"
    },
    {
      "constant": true,
      "inputs": [],
      "name": "factory",
      "outputs": [
        {
          "internalType": "address",
          "name": "",
          "type": "address"
        }
      ],
      "payable": false,
      "stateMutability": "view",
      "type": "function"
    },
    {
      "constant": true,
      "inputs": [],
      "name": "getKelsenData",
      "outputs": [
        {
          "internalType": "bool",
          "name": "_isOrgan",
          "type": "bool"
        },
        {
          "internalType": "bool",
          "name": "_isProcedure",
          "type": "bool"
        },
        {
          "internalType": "uint8",
          "name": "_version",
          "type": "uint8"
        }
      ],
      "payable": false,
      "stateMutability": "view",
      "type": "function"
    },
    {
      "constant": true,
      "inputs": [],
      "name": "isOrgan",
      "outputs": [
        {
          "internalType": "bool",
          "name": "",
          "type": "bool"
        }
      ],
      "payable": false,
      "stateMutability": "view",
      "type": "function"
    },
    {
      "constant": true,
      "inputs": [],
      "name": "isProcedure",
      "outputs": [
        {
          "internalType": "bool",
          "name": "",
          "type": "bool"
        }
      ],
      "payable": false,
      "stateMutability": "view",
      "type": "function"
    },
    {
      "constant": true,
      "inputs": [],
      "name": "kelsenVersion",
      "outputs": [
        {
          "internalType": "uint8",
          "name": "",
          "type": "uint8"
        }
      ],
      "payable": false,
      "stateMutability": "view",
      "type": "function"
    },
    {
      "constant": true,
      "inputs": [],
      "name": "organData",
      "outputs": [
        {
          "internalType": "address",
          "name": "owner",
          "type": "address"
        },
        {
          "internalType": "bytes32",
          "name": "metadataIpfsHash",
          "type": "bytes32"
        },
        {
          "internalType": "uint8",
          "name": "metadataHashFunction",
          "type": "uint8"
        },
        {
          "internalType": "uint8",
          "name": "metadataHashSize",
          "type": "uint8"
        },
        {
          "internalType": "uint256",
          "name": "normsCount",
          "type": "uint256"
        }
      ],
      "payable": false,
      "stateMutability": "view",
      "type": "function"
    },
    {
      "constant": false,
      "inputs": [
        {
          "internalType": "bytes32",
          "name": "_ipfsHash",
          "type": "bytes32"
        },
        {
          "internalType": "uint8",
          "name": "_hashFunction",
          "type": "uint8"
        },
        {
          "internalType": "uint8",
          "name": "_hashSize",
          "type": "uint8"
        }
      ],
      "name": "updateMetadata",
      "outputs": [],
      "payable": false,
      "stateMutability": "nonpayable",
      "type": "function"
    },
    {
      "constant": false,
      "inputs": [
        {
          "internalType": "address payable",
          "name": "_to",
          "type": "address"
        },
        {
          "internalType": "uint256",
          "name": "_value",
          "type": "uint256"
        }
      ],
      "name": "withdraw",
      "outputs": [],
      "payable": false,
      "stateMutability": "nonpayable",
      "type": "function"
    },
    {
      "constant": false,
      "inputs": [
        {
          "internalType": "address",
          "name": "_newMasterAddress",
          "type": "address"
        },
        {
          "internalType": "bool",
          "name": "_canAdd",
          "type": "bool"
        },
        {
          "internalType": "bool",
          "name": "_canRemove",
          "type": "bool"
        }
      ],
      "name": "addMaster",
      "outputs": [],
      "payable": false,
      "stateMutability": "nonpayable",
      "type": "function"
    },
    {
      "constant": false,
      "inputs": [
        {
          "internalType": "address",
          "name": "_masterToRemove",
          "type": "address"
        }
      ],
      "name": "removeMaster",
      "outputs": [],
      "payable": false,
      "stateMutability": "nonpayable",
      "type": "function"
    },
    {
      "constant": false,
      "inputs": [
        {
          "internalType": "address",
          "name": "_masterToRemove",
          "type": "address"
        },
        {
          "internalType": "address",
          "name": "_masterToAdd",
          "type": "address"
        },
        {
          "internalType": "bool",
          "name": "_canAdd",
          "type": "bool"
        },
        {
          "internalType": "bool",
          "name": "_canRemove",
          "type": "bool"
        }
      ],
      "name": "replaceMaster",
      "outputs": [],
      "payable": false,
      "stateMutability": "nonpayable",
      "type": "function"
    },
    {
      "constant": false,
      "inputs": [
        {
          "internalType": "address",
          "name": "_newAdminAddress",
          "type": "address"
        },
        {
          "internalType": "bool",
          "name": "_canAdd",
          "type": "bool"
        },
        {
          "internalType": "bool",
          "name": "_canRemove",
          "type": "bool"
        },
        {
          "internalType": "bool",
          "name": "_canDeposit",
          "type": "bool"
        },
        {
          "internalType": "bool",
          "name": "_canWithdraw",
          "type": "bool"
        }
      ],
      "name": "addAdmin",
      "outputs": [],
      "payable": false,
      "stateMutability": "nonpayable",
      "type": "function"
    },
    {
      "constant": false,
      "inputs": [
        {
          "internalType": "address",
          "name": "_adminToRemove",
          "type": "address"
        }
      ],
      "name": "removeAdmin",
      "outputs": [],
      "payable": false,
      "stateMutability": "nonpayable",
      "type": "function"
    },
    {
      "constant": false,
      "inputs": [
        {
          "internalType": "address",
          "name": "_adminToRemove",
          "type": "address"
        },
        {
          "internalType": "address",
          "name": "_adminToAdd",
          "type": "address"
        },
        {
          "internalType": "bool",
          "name": "_canAdd",
          "type": "bool"
        },
        {
          "internalType": "bool",
          "name": "_canRemove",
          "type": "bool"
        },
        {
          "internalType": "bool",
          "name": "_canDeposit",
          "type": "bool"
        },
        {
          "internalType": "bool",
          "name": "_canWithdraw",
          "type": "bool"
        }
      ],
      "name": "replaceAdmin",
      "outputs": [],
      "payable": false,
      "stateMutability": "nonpayable",
      "type": "function"
    },
    {
      "constant": false,
      "inputs": [
        {
          "internalType": "address payable",
          "name": "_normAddress",
          "type": "address"
        },
        {
          "internalType": "bytes32",
          "name": "_ipfsHash",
          "type": "bytes32"
        },
        {
          "internalType": "uint8",
          "name": "_hashFunction",
          "type": "uint8"
        },
        {
          "internalType": "uint8",
          "name": "_hashSize",
          "type": "uint8"
        }
      ],
      "name": "addNorm",
      "outputs": [
        {
          "internalType": "uint256",
          "name": "_normPosition",
          "type": "uint256"
        }
      ],
      "payable": false,
      "stateMutability": "nonpayable",
      "type": "function"
    },
    {
      "constant": false,
      "inputs": [
        {
          "internalType": "uint256",
          "name": "_normIndex",
          "type": "uint256"
        }
      ],
      "name": "removeNorm",
      "outputs": [],
      "payable": false,
      "stateMutability": "nonpayable",
      "type": "function"
    },
    {
      "constant": false,
      "inputs": [
        {
          "internalType": "uint256",
          "name": "_normIndex",
          "type": "uint256"
        },
        {
          "internalType": "address payable",
          "name": "_normAddress",
          "type": "address"
        },
        {
          "internalType": "bytes32",
          "name": "_ipfsHash",
          "type": "bytes32"
        },
        {
          "internalType": "uint8",
          "name": "_hashFunction",
          "type": "uint8"
        },
        {
          "internalType": "uint8",
          "name": "_hashSize",
          "type": "uint8"
        }
      ],
      "name": "replaceNorm",
      "outputs": [],
      "payable": false,
      "stateMutability": "nonpayable",
      "type": "function"
    },
    {
      "constant": true,
      "inputs": [
        {
          "internalType": "address",
          "name": "_adressToCheck",
          "type": "address"
        }
      ],
      "name": "isMaster",
      "outputs": [
        {
          "internalType": "bool",
          "name": "canAdd",
          "type": "bool"
        },
        {
          "internalType": "bool",
          "name": "canRemove",
          "type": "bool"
        }
      ],
      "payable": false,
      "stateMutability": "view",
      "type": "function"
    },
    {
      "constant": true,
      "inputs": [
        {
          "internalType": "address",
          "name": "_adressToCheck",
          "type": "address"
        }
      ],
      "name": "isAdmin",
      "outputs": [
        {
          "internalType": "bool",
          "name": "canAdd",
          "type": "bool"
        },
        {
          "internalType": "bool",
          "name": "canRemove",
          "type": "bool"
        },
        {
          "internalType": "bool",
          "name": "canDeposit",
          "type": "bool"
        },
        {
          "internalType": "bool",
          "name": "canWithdraw",
          "type": "bool"
        }
      ],
      "payable": false,
      "stateMutability": "view",
      "type": "function"
    },
    {
      "constant": true,
      "inputs": [],
      "name": "getNormListSize",
      "outputs": [
        {
          "internalType": "uint256",
          "name": "normArraySize",
          "type": "uint256"
        }
      ],
      "payable": false,
      "stateMutability": "view",
      "type": "function"
    },
    {
      "constant": true,
      "inputs": [
        {
          "internalType": "address",
          "name": "_addressToCheck",
          "type": "address"
        }
      ],
      "name": "getNormIndexForAddress",
      "outputs": [
        {
          "internalType": "uint256",
          "name": "addressInNormPosition",
          "type": "uint256"
        }
      ],
      "payable": false,
      "stateMutability": "view",
      "type": "function"
    },
    {
      "constant": true,
      "inputs": [
        {
          "internalType": "uint256",
          "name": "_index",
          "type": "uint256"
        }
      ],
      "name": "getNorm",
      "outputs": [
        {
          "internalType": "address payable",
          "name": "normAddress",
          "type": "address"
        },
        {
          "internalType": "bytes32",
          "name": "ipfsHash",
          "type": "bytes32"
        },
        {
          "internalType": "uint8",
          "name": "hashFunction",
          "type": "uint8"
        },
        {
          "internalType": "uint8",
          "name": "hashSize",
          "type": "uint8"
        }
      ],
      "payable": false,
      "stateMutability": "view",
      "type": "function"
    }
  ],
  "bytecode": "0x608060405260036000806101000a81548160ff021916908360ff16021790555034801561002b57600080fd5b506040516118a23803806118a28339818101604052608081101561004e57600080fd5b81019080805190602001909291908051906020019092919080519060200190929190805190602001909291905050506001600081600060016101000a81548160ff02191690831515021790555080600060026101000a81548160ff021916908315150217905550505033600960006101000a81548173ffffffffffffffffffffffffffffffffffffffff021916908373ffffffffffffffffffffffffffffffffffffffff160217905550600173__OrganLibrary__________________________6374771eb49091868686866040518663ffffffff1660e01b8152600401808681526020018573ffffffffffffffffffffffffffffffffffffffff1673ffffffffffffffffffffffffffffffffffffffff1681526020018481526020018360ff1660ff1681526020018260ff1660ff1681526020019550505050505060006040518083038186803b1580156101a257600080fd5b505af41580156101b6573d6000803e3d6000fd5b50505050505050506116d5806101cd6000396000f3fe6080604052600436106101355760003560e01c8063759913d6116100ab578063c45a01551161006f578063c45a015514610815578063c91ebea81461086c578063cbae782b1461089b578063e2a2f0a314610900578063f3fef3a314610951578063f720f80b146109ac57610135565b8063759913d61461068057806379524d2d146106b157806390f2ee22146107325780639e9b8aed14610761578063a08c3cb51461078c57610135565b80635185ee3f116100fd5780635185ee3f146103815780635a52ceea146104005780636091112d1461049c5780636c49e087146104d75780636f2a4d5f1461055657806371e7f374146105df57610135565b80631785f53c146101a1578063249abcf7146101f257806324d7806c1461023957806339c2ae70146102c35780633f7819a114610318575b600173__OrganLibrary__________________________63b8bf0edf90916040518263ffffffff1660e01b81526004018082815260200191505060006040518083038186803b15801561018757600080fd5b505af415801561019b573d6000803e3d6000fd5b50505050005b3480156101ad57600080fd5b506101f0600480360360208110156101c457600080fd5b81019080803573ffffffffffffffffffffffffffffffffffffffff169060200190929190505050610a20565b005b3480156101fe57600080fd5b50610207610ac1565b6040518084151515158152602001831515151581526020018260ff1660ff168152602001935050505060405180910390f35b34801561024557600080fd5b506102886004803603602081101561025c57600080fd5b81019080803573ffffffffffffffffffffffffffffffffffffffff169060200190929190505050610aff565b604051808515151515815260200184151515158152602001831515151581526020018215151515815260200194505050505060405180910390f35b3480156102cf57600080fd5b50610316600480360360608110156102e657600080fd5b8101908080359060200190929190803560ff169060200190929190803560ff169060200190929190505050610c60565b005b34801561032457600080fd5b5061037f6004803603606081101561033b57600080fd5b81019080803573ffffffffffffffffffffffffffffffffffffffff169060200190929190803515159060200190929190803515159060200190929190505050610cf3565b005b34801561038d57600080fd5b50610396610dae565b604051808673ffffffffffffffffffffffffffffffffffffffff1673ffffffffffffffffffffffffffffffffffffffff1681526020018581526020018460ff1660ff1681526020018360ff1660ff1681526020018281526020019550505050505060405180910390f35b34801561040c57600080fd5b506104396004803603602081101561042357600080fd5b8101908080359060200190929190505050610e0c565b604051808573ffffffffffffffffffffffffffffffffffffffff1673ffffffffffffffffffffffffffffffffffffffff1681526020018481526020018360ff1660ff1681526020018260ff1660ff16815260200194505050505060405180910390f35b3480156104a857600080fd5b506104d5600480360360208110156104bf57600080fd5b8101908080359060200190929190505050610ee3565b005b3480156104e357600080fd5b50610554600480360360a08110156104fa57600080fd5b8101908080359060200190929190803573ffffffffffffffffffffffffffffffffffffffff16906020019092919080359060200190929190803560ff169060200190929190803560ff169060200190929190505050610f58565b005b34801561056257600080fd5b506105dd6004803603608081101561057957600080fd5b81019080803573ffffffffffffffffffffffffffffffffffffffff169060200190929190803573ffffffffffffffffffffffffffffffffffffffff169060200190929190803515159060200190929190803515159060200190929190505050611029565b005b3480156105eb57600080fd5b5061067e600480360360c081101561060257600080fd5b81019080803573ffffffffffffffffffffffffffffffffffffffff169060200190929190803573ffffffffffffffffffffffffffffffffffffffff169060200190929190803515159060200190929190803515159060200190929190803515159060200190929190803515159060200190929190505050611119565b005b34801561068c57600080fd5b50610695611223565b604051808260ff1660ff16815260200191505060405180910390f35b3480156106bd57600080fd5b50610730600480360360a08110156106d457600080fd5b81019080803573ffffffffffffffffffffffffffffffffffffffff169060200190929190803515159060200190929190803515159060200190929190803515159060200190929190803515159060200190929190505050611235565b005b34801561073e57600080fd5b5061074761130a565b604051808215151515815260200191505060405180910390f35b34801561076d57600080fd5b5061077661131d565b6040518082815260200191505060405180910390f35b34801561079857600080fd5b506107ff600480360360808110156107af57600080fd5b81019080803573ffffffffffffffffffffffffffffffffffffffff16906020019092919080359060200190929190803560ff169060200190929190803560ff16906020019092919050505061132d565b6040518082815260200191505060405180910390f35b34801561082157600080fd5b5061082a61141e565b604051808273ffffffffffffffffffffffffffffffffffffffff1673ffffffffffffffffffffffffffffffffffffffff16815260200191505060405180910390f35b34801561087857600080fd5b50610881611444565b604051808215151515815260200191505060405180910390f35b3480156108a757600080fd5b506108ea600480360360208110156108be57600080fd5b81019080803573ffffffffffffffffffffffffffffffffffffffff169060200190929190505050611457565b6040518082815260200191505060405180910390f35b34801561090c57600080fd5b5061094f6004803603602081101561092357600080fd5b81019080803573ffffffffffffffffffffffffffffffffffffffff1690602001909291905050506114a3565b005b34801561095d57600080fd5b506109aa6004803603604081101561097457600080fd5b81019080803573ffffffffffffffffffffffffffffffffffffffff16906020019092919080359060200190929190505050611544565b005b3480156109b857600080fd5b506109fb600480360360208110156109cf57600080fd5b81019080803573ffffffffffffffffffffffffffffffffffffffff1690602001909291905050506115ee565b6040518083151515158152602001821515151581526020019250505060405180910390f35b600173__OrganLibrary__________________________63af29f2799091836040518363ffffffff1660e01b8152600401808381526020018273ffffffffffffffffffffffffffffffffffffffff1673ffffffffffffffffffffffffffffffffffffffff1681526020019250505060006040518083038186803b158015610aa657600080fd5b505af4158015610aba573d6000803e3d6000fd5b5050505050565b60008060008060019054906101000a900460ff16600060029054906101000a900460ff166000809054906101000a900460ff16925092509250909192565b600080600080600160050160008673ffffffffffffffffffffffffffffffffffffffff1673ffffffffffffffffffffffffffffffffffffffff16815260200190815260200160002060000160009054906101000a900460ff16600160050160008773ffffffffffffffffffffffffffffffffffffffff1673ffffffffffffffffffffffffffffffffffffffff16815260200190815260200160002060000160019054906101000a900460ff16600160050160008873ffffffffffffffffffffffffffffffffffffffff1673ffffffffffffffffffffffffffffffffffffffff16815260200190815260200160002060000160039054906101000a900460ff16600160050160008973ffffffffffffffffffffffffffffffffffffffff1673ffffffffffffffffffffffffffffffffffffffff16815260200190815260200160002060000160029054906101000a900460ff1693509350935093509193509193565b600173__OrganLibrary__________________________63f59263df90918585856040518563ffffffff1660e01b8152600401808581526020018481526020018360ff1660ff1681526020018260ff1660ff16815260200194505050505060006040518083038186803b158015610cd657600080fd5b505af4158015610cea573d6000803e3d6000fd5b50505050505050565b600173__OrganLibrary__________________________637b57ef1e90918585856040518563ffffffff1660e01b8152600401808581526020018473ffffffffffffffffffffffffffffffffffffffff1673ffffffffffffffffffffffffffffffffffffffff168152602001831515151581526020018215151515815260200194505050505060006040518083038186803b158015610d9157600080fd5b505af4158015610da5573d6000803e3d6000fd5b50505050505050565b60018060000160009054906101000a900473ffffffffffffffffffffffffffffffffffffffff16908060010154908060020160009054906101000a900460ff16908060020160019054906101000a900460ff16908060030154905085565b60008060008060016006018581548110610e2257fe5b906000526020600020906003020160000160009054906101000a900473ffffffffffffffffffffffffffffffffffffffff1660016006018681548110610e6457fe5b90600052602060002090600302016001015460016006018781548110610e8657fe5b906000526020600020906003020160020160009054906101000a900460ff1660016006018881548110610eb557fe5b906000526020600020906003020160020160019054906101000a900460ff1693509350935093509193509193565b600173__OrganLibrary__________________________63035ad0469091836040518363ffffffff1660e01b8152600401808381526020018281526020019250505060006040518083038186803b158015610f3d57600080fd5b505af4158015610f51573d6000803e3d6000fd5b5050505050565b600173__OrganLibrary__________________________630b3a4a64909187878787876040518763ffffffff1660e01b8152600401808781526020018681526020018573ffffffffffffffffffffffffffffffffffffffff1673ffffffffffffffffffffffffffffffffffffffff1681526020018481526020018360ff1660ff1681526020018260ff1660ff168152602001965050505050505060006040518083038186803b15801561100a57600080fd5b505af415801561101e573d6000803e3d6000fd5b505050505050505050565b600173__OrganLibrary__________________________638e9f475c9091868686866040518663ffffffff1660e01b8152600401808681526020018573ffffffffffffffffffffffffffffffffffffffff1673ffffffffffffffffffffffffffffffffffffffff1681526020018473ffffffffffffffffffffffffffffffffffffffff1673ffffffffffffffffffffffffffffffffffffffff16815260200183151515158152602001821515151581526020019550505050505060006040518083038186803b1580156110fb57600080fd5b505af415801561110f573d6000803e3d6000fd5b5050505050505050565b600173__OrganLibrary__________________________63a3131c1d90918888888888886040518863ffffffff1660e01b8152600401808881526020018773ffffffffffffffffffffffffffffffffffffffff1673ffffffffffffffffffffffffffffffffffffffff1681526020018673ffffffffffffffffffffffffffffffffffffffff1673ffffffffffffffffffffffffffffffffffffffff1681526020018515151515815260200184151515158152602001831515151581526020018215151515815260200197505050505050505060006040518083038186803b15801561120357600080fd5b505af4158015611217573d6000803e3d6000fd5b50505050505050505050565b6000809054906101000a900460ff1681565b600173__OrganLibrary__________________________6350eb96bb909187878787876040518763ffffffff1660e01b8152600401808781526020018673ffffffffffffffffffffffffffffffffffffffff1673ffffffffffffffffffffffffffffffffffffffff16815260200185151515158152602001841515151581526020018315151515815260200182151515158152602001965050505050505060006040518083038186803b1580156112eb57600080fd5b505af41580156112ff573d6000803e3d6000fd5b505050505050505050565b600060019054906101000a900460ff1681565b6000600160060180549050905090565b6000600173__OrganLibrary__________________________6391a3c0729091878787876040518663ffffffff1660e01b8152600401808681526020018573ffffffffffffffffffffffffffffffffffffffff1673ffffffffffffffffffffffffffffffffffffffff1681526020018481526020018360ff1660ff1681526020018260ff1660ff1681526020019550505050505060206040518083038186803b1580156113d957600080fd5b505af41580156113ed573d6000803e3d6000fd5b505050506040513d602081101561140357600080fd5b81019080805190602001909291905050509050949350505050565b600960009054906101000a900473ffffffffffffffffffffffffffffffffffffffff1681565b600060029054906101000a900460ff1681565b6000600160070160008373ffffffffffffffffffffffffffffffffffffffff1673ffffffffffffffffffffffffffffffffffffffff168152602001908152602001600020549050919050565b600173__OrganLibrary__________________________63db346b8c9091836040518363ffffffff1660e01b8152600401808381526020018273ffffffffffffffffffffffffffffffffffffffff1673ffffffffffffffffffffffffffffffffffffffff1681526020019250505060006040518083038186803b15801561152957600080fd5b505af415801561153d573d6000803e3d6000fd5b5050505050565b600173__OrganLibrary__________________________63869d0626909184846040518463ffffffff1660e01b8152600401808481526020018373ffffffffffffffffffffffffffffffffffffffff1673ffffffffffffffffffffffffffffffffffffffff168152602001828152602001935050505060006040518083038186803b1580156115d257600080fd5b505af41580156115e6573d6000803e3d6000fd5b505050505050565b600080600160040160008473ffffffffffffffffffffffffffffffffffffffff1673ffffffffffffffffffffffffffffffffffffffff16815260200190815260200160002060000160009054906101000a900460ff16600160040160008573ffffffffffffffffffffffffffffffffffffffff1673ffffffffffffffffffffffffffffffffffffffff16815260200190815260200160002060000160019054906101000a900460ff169150915091509156fea265627a7a723158206b9ee262b753f9b06e894dcbef2fe1276ffe35eb21a5ee8053435aec1649756564736f6c634300050c0032",
  "source": "pragma solidity >=0.4.22 <0.7.0;\n\n/// @title Standard Kelsen Organ contract.\n\nimport \"./Kelsen.sol\";\nimport \"./libraries/organLibrary.sol\";\n\ncontract Organ is Kelsen(true,false) {\n\n    // Linking to Organ library.\n    using OrganLibrary for OrganLibrary.OrganData;\n    OrganLibrary.OrganData public organData;\n\n    address public factory;\n\n    /*\n        Organ management.\n    */\n\n    // Constructor.\n    constructor(address _owner, bytes32 _metadataIpfsHash, uint8 _metadataHashFunction, uint8 _metadataHashSize)\n        public\n    {\n        factory = msg.sender;\n        organData.init(_owner, _metadataIpfsHash, _metadataHashFunction, _metadataHashSize);\n    }\n\n    // Receiving funds.\n    function () external payable {\n        organData.deposit();\n    }\n\n    function updateMetadata(bytes32 _ipfsHash, uint8 _hashFunction, uint8 _hashSize)\n        public\n    {\n        organData.updateMetadata(_ipfsHash, _hashFunction, _hashSize);\n    }\n\n    function withdraw(address payable _to, uint _value)\n        public\n    {\n        organData.withdraw(_to, _value);\n    }\n\n    /*\n        Masters management.\n    */\n\n    function addMaster(address _newMasterAddress, bool _canAdd, bool _canRemove)\n        public\n    {\n        organData.addMaster(_newMasterAddress, _canAdd, _canRemove);\n    }\n\n    function removeMaster(address _masterToRemove)\n        public\n    {\n        organData.removeMaster(_masterToRemove);\n    }\n\n    function replaceMaster(address _masterToRemove, address _masterToAdd, bool _canAdd, bool _canRemove)\n        public\n    {\n        organData.replaceMaster(_masterToRemove, _masterToAdd, _canAdd, _canRemove);\n    }\n\n    /*\n        Admins management.\n    */\n\n    function addAdmin(address _newAdminAddress, bool _canAdd, bool _canRemove, bool _canDeposit, bool _canWithdraw)\n        public\n    {\n        organData.addAdmin(_newAdminAddress, _canAdd, _canRemove, _canDeposit, _canWithdraw);\n    }\n\n    function removeAdmin(address _adminToRemove)\n        public\n    {\n        organData.removeAdmin(_adminToRemove);\n    }\n\n    function replaceAdmin(\n        address _adminToRemove, address _adminToAdd,\n        bool _canAdd, bool _canRemove, bool _canDeposit, bool _canWithdraw\n    )\n        public\n    {\n        organData.replaceAdmin(_adminToRemove, _adminToAdd, _canAdd, _canRemove, _canDeposit, _canWithdraw);\n    }\n\n    /*\n        Norms management.\n    */\n\n    function addNorm(address payable _normAddress, bytes32 _ipfsHash, uint8 _hashFunction, uint8 _hashSize)\n        public returns (uint _normPosition)\n    {\n        return organData.addNorm(_normAddress, _ipfsHash, _hashFunction, _hashSize);\n    }\n\n    function removeNorm(uint _normIndex)\n        public\n    {\n       organData.removeNorm(_normIndex);\n    }\n\n    function replaceNorm(uint _normIndex, address payable _normAddress, bytes32 _ipfsHash, uint8 _hashFunction, uint8 _hashSize)\n        public\n    {\n       organData.replaceNorm(_normIndex, _normAddress, _ipfsHash, _hashFunction, _hashSize);\n    }\n\n    /*\n        Utilities for contracts.\n    */\n\n    function isMaster(address _adressToCheck)\n        public view returns (bool canAdd, bool canRemove)\n    {\n        return (organData.masters[_adressToCheck].canAdd, organData.masters[_adressToCheck].canRemove);\n    }\n\n    function isAdmin(address _adressToCheck)\n        public view returns (bool canAdd, bool canRemove, bool canDeposit, bool canWithdraw)\n    {\n        return (\n            organData.admins[_adressToCheck].canAdd,\n            organData.admins[_adressToCheck].canRemove,\n            organData.admins[_adressToCheck].canDeposit,\n            organData.admins[_adressToCheck].canWithdraw\n        );\n    }\n\n    // Retrieve contract state info.\n    // Size of norm array, to list elements.\n    function getNormListSize()\n        public view returns (uint normArraySize)\n    {\n        return organData.norms.length;\n    }\n\n    function getNormIndexForAddress(address _addressToCheck)\n        public view returns (uint addressInNormPosition)\n    {\n        return organData.addressPositionInNorms[_addressToCheck];\n    }\n\n    function getNorm(uint _index)\n        public view returns (address payable normAddress, bytes32 ipfsHash, uint8 hashFunction, uint8 hashSize)\n    {\n        return (\n            organData.norms[_index].normAddress,\n            organData.norms[_index].ipfsHash,\n            organData.norms[_index].hashFunction,\n            organData.norms[_index].hashSize\n        );\n    }\n}",
  "sourcePath": "/Users/alex/Code/organigr.am/kelsen/contracts/Organ.sol",
  "compiler": {
    "name": "solc",
    "version": "0.5.12+commit.7709ece9.Emscripten.clang"
  },
  "schemaVersion": "3.0.19",
  "updatedAt": "2020-03-08T14:18:42.708Z",
  "devdoc": {
    "methods": {}
  },
  "userdoc": {
    "methods": {}
  }
}