{
  "contractName": "ProcedureFactory",
  "abi": [
    {
      "inputs": [],
      "payable": false,
      "stateMutability": "nonpayable",
      "type": "constructor"
    },
    {
      "anonymous": false,
      "inputs": [
        {
          "indexed": false,
          "internalType": "address",
          "name": "_from",
          "type": "address"
        },
        {
          "indexed": false,
          "internalType": "address",
          "name": "_address",
          "type": "address"
        }
      ],
      "name": "procedureRegistered",
      "type": "event"
    },
    {
      "constant": true,
      "inputs": [],
      "name": "owner",
      "outputs": [
        {
          "internalType": "address",
          "name": "",
          "type": "address"
        }
      ],
      "payable": false,
      "stateMutability": "view",
      "type": "function"
    },
    {
      "constant": true,
      "inputs": [
        {
          "internalType": "uint256",
          "name": "",
          "type": "uint256"
        }
      ],
      "name": "procedures",
      "outputs": [
        {
          "internalType": "address",
          "name": "",
          "type": "address"
        }
      ],
      "payable": false,
      "stateMutability": "view",
      "type": "function"
    },
    {
      "constant": true,
      "inputs": [],
      "name": "createProcedure",
      "outputs": [],
      "payable": false,
      "stateMutability": "pure",
      "type": "function"
    }
  ],
  "bytecode": "0x608060405234801561001057600080fd5b50336000806101000a81548173ffffffffffffffffffffffffffffffffffffffff021916908373ffffffffffffffffffffffffffffffffffffffff160217905550610220806100606000396000f3fe608060405234801561001057600080fd5b50600436106100415760003560e01c80636996c27b146100465780638b4556ae146100505780638da5cb5b146100be575b600080fd5b61004e610108565b005b61007c6004803603602081101561006657600080fd5b8101908080359060200190929190505050610159565b604051808273ffffffffffffffffffffffffffffffffffffffff1673ffffffffffffffffffffffffffffffffffffffff16815260200191505060405180910390f35b6100c6610195565b604051808273ffffffffffffffffffffffffffffffffffffffff1673ffffffffffffffffffffffffffffffffffffffff16815260200191505060405180910390f35b6040517f08c379a00000000000000000000000000000000000000000000000000000000081526004018080602001828103825260318152602001806101bb6031913960400191505060405180910390fd5b6001818154811061016657fe5b906000526020600020016000915054906101000a900473ffffffffffffffffffffffffffffffffffffffff1681565b6000809054906101000a900473ffffffffffffffffffffffffffffffffffffffff168156fe466163746f7279206d757374206f76657272696465207468652063726561746550726f636564757265206d6574686f642ea265627a7a72315820981446487536cda1c31dfa0969cdaaff823b52a7870c4dc0f7441966a75a3c9164736f6c634300050c0032",
  "source": "pragma solidity >=0.4.22 <0.7.0;\n\n/// @title Base contract from which procedures factories inherit.\n\ncontract ProcedureFactory {\n\n    address public owner;\n    address[] public procedures;\n\n    // Events.\n    event procedureRegistered(address _from, address _address);\n\n    constructor() public {\n        owner = msg.sender;\n    }\n\n    function createProcedure() public pure {\n        revert(\"Factory must override the createProcedure method.\");\n    }\n\n    function registerProcedure(address _contractAddress)\n        internal returns (address)\n    {\n        procedures.push(_contractAddress);\n        emit procedureRegistered(msg.sender, _contractAddress);\n        return _contractAddress;\n    }\n}",
  "sourcePath": "/Users/alex/Code/organigr.am/kelsen/contracts/ProcedureFactory.sol",
  "compiler": {
    "name": "solc",
    "version": "0.5.12+commit.7709ece9.Emscripten.clang"
  },
  "schemaVersion": "3.0.19",
  "updatedAt": "2020-03-08T14:18:42.722Z",
  "devdoc": {
    "methods": {},
    "title": "Base contract from which procedures factories inherit."
  },
  "userdoc": {
    "methods": {}
  }
}