{
  "contractName": "Procedure",
  "abi": [
    {
      "inputs": [
        {
          "internalType": "bytes32",
          "name": "_metadataIpfsHash",
          "type": "bytes32"
        },
        {
          "internalType": "uint8",
          "name": "_metadataHashFunction",
          "type": "uint8"
        },
        {
          "internalType": "uint8",
          "name": "_metadataHashSize",
          "type": "uint8"
        }
      ],
      "payable": false,
      "stateMutability": "nonpayable",
      "type": "constructor"
    },
    {
      "constant": true,
      "inputs": [],
      "name": "factory",
      "outputs": [
        {
          "internalType": "address",
          "name": "",
          "type": "address"
        }
      ],
      "payable": false,
      "stateMutability": "view",
      "type": "function"
    },
    {
      "constant": true,
      "inputs": [],
      "name": "getKelsenData",
      "outputs": [
        {
          "internalType": "bool",
          "name": "_isOrgan",
          "type": "bool"
        },
        {
          "internalType": "bool",
          "name": "_isProcedure",
          "type": "bool"
        },
        {
          "internalType": "uint8",
          "name": "_version",
          "type": "uint8"
        }
      ],
      "payable": false,
      "stateMutability": "view",
      "type": "function"
    },
    {
      "constant": true,
      "inputs": [],
      "name": "isOrgan",
      "outputs": [
        {
          "internalType": "bool",
          "name": "",
          "type": "bool"
        }
      ],
      "payable": false,
      "stateMutability": "view",
      "type": "function"
    },
    {
      "constant": true,
      "inputs": [],
      "name": "isProcedure",
      "outputs": [
        {
          "internalType": "bool",
          "name": "",
          "type": "bool"
        }
      ],
      "payable": false,
      "stateMutability": "view",
      "type": "function"
    },
    {
      "constant": true,
      "inputs": [],
      "name": "kelsenVersion",
      "outputs": [
        {
          "internalType": "uint8",
          "name": "",
          "type": "uint8"
        }
      ],
      "payable": false,
      "stateMutability": "view",
      "type": "function"
    },
    {
      "constant": true,
      "inputs": [],
      "name": "procedureData",
      "outputs": [
        {
          "internalType": "bytes32",
          "name": "metadataIpfsHash",
          "type": "bytes32"
        },
        {
          "internalType": "uint8",
          "name": "metadataHashFunction",
          "type": "uint8"
        },
        {
          "internalType": "uint8",
          "name": "metadataHashSize",
          "type": "uint8"
        },
        {
          "internalType": "address payable",
          "name": "admin",
          "type": "address"
        }
      ],
      "payable": false,
      "stateMutability": "view",
      "type": "function"
    },
    {
      "constant": false,
      "inputs": [
        {
          "internalType": "bytes32",
          "name": "_ipfsHash",
          "type": "bytes32"
        },
        {
          "internalType": "uint8",
          "name": "_hashFunction",
          "type": "uint8"
        },
        {
          "internalType": "uint8",
          "name": "_hashSize",
          "type": "uint8"
        }
      ],
      "name": "updateMetadata",
      "outputs": [],
      "payable": false,
      "stateMutability": "nonpayable",
      "type": "function"
    },
    {
      "constant": false,
      "inputs": [
        {
          "internalType": "address payable",
          "name": "_admin",
          "type": "address"
        }
      ],
      "name": "updateAdmin",
      "outputs": [],
      "payable": false,
      "stateMutability": "nonpayable",
      "type": "function"
    }
  ],
  "bytecode": "0x608060405260036000806101000a81548160ff021916908360ff16021790555034801561002b57600080fd5b5060405161065b38038061065b8339818101604052606081101561004e57600080fd5b810190808051906020019092919080519060200190929190805190602001909291905050506000600181600060016101000a81548160ff02191690831515021790555080600060026101000a81548160ff021916908315150217905550505033600360006101000a81548173ffffffffffffffffffffffffffffffffffffffff021916908373ffffffffffffffffffffffffffffffffffffffff160217905550600173__ProcedureLibrary______________________63359a395d90918585856040518563ffffffff1660e01b8152600401808581526020018481526020018360ff1660ff1681526020018260ff1660ff16815260200194505050505060006040518083038186803b15801561016457600080fd5b505af4158015610178573d6000803e3d6000fd5b505050505050506104cd8061018e6000396000f3fe608060405234801561001057600080fd5b50600436106100885760003560e01c806390f2ee221161005b57806390f2ee221461019e578063c45a0155146101c0578063c91ebea81461020a578063e2f273bd1461022c57610088565b8063249abcf71461008d57806339c2ae70146100c75780635b07cda51461010f578063759913d61461017a575b600080fd5b610095610270565b6040518084151515158152602001831515151581526020018260ff1660ff168152602001935050505060405180910390f35b61010d600480360360608110156100dd57600080fd5b8101908080359060200190929190803560ff169060200190929190803560ff1690602001909291905050506102ae565b005b610117610341565b604051808581526020018460ff1660ff1681526020018360ff1660ff1681526020018273ffffffffffffffffffffffffffffffffffffffff1673ffffffffffffffffffffffffffffffffffffffff16815260200194505050505060405180910390f35b610182610399565b604051808260ff1660ff16815260200191505060405180910390f35b6101a66103ab565b604051808215151515815260200191505060405180910390f35b6101c86103be565b604051808273ffffffffffffffffffffffffffffffffffffffff1673ffffffffffffffffffffffffffffffffffffffff16815260200191505060405180910390f35b6102126103e4565b604051808215151515815260200191505060405180910390f35b61026e6004803603602081101561024257600080fd5b81019080803573ffffffffffffffffffffffffffffffffffffffff1690602001909291905050506103f7565b005b60008060008060019054906101000a900460ff16600060029054906101000a900460ff166000809054906101000a900460ff16925092509250909192565b600173__ProcedureLibrary______________________63b8cc9a0290918585856040518563ffffffff1660e01b8152600401808581526020018481526020018360ff1660ff1681526020018260ff1660ff16815260200194505050505060006040518083038186803b15801561032457600080fd5b505af4158015610338573d6000803e3d6000fd5b50505050505050565b60018060000154908060010160009054906101000a900460ff16908060010160019054906101000a900460ff16908060010160029054906101000a900473ffffffffffffffffffffffffffffffffffffffff16905084565b6000809054906101000a900460ff1681565b600060019054906101000a900460ff1681565b600360009054906101000a900473ffffffffffffffffffffffffffffffffffffffff1681565b600060029054906101000a900460ff1681565b600173__ProcedureLibrary______________________638e956e929091836040518363ffffffff1660e01b8152600401808381526020018273ffffffffffffffffffffffffffffffffffffffff1673ffffffffffffffffffffffffffffffffffffffff1681526020019250505060006040518083038186803b15801561047d57600080fd5b505af4158015610491573d6000803e3d6000fd5b505050505056fea265627a7a7231582020256c0d56185f63074f3c25f2c0868c7f8bd177c80611a36930d95504094a0764736f6c634300050c0032",
  "source": "pragma solidity >=0.4.22 <0.7.0;\n\n/// @title Standard Kelsen Procedure contract.\n\nimport \"./Kelsen.sol\";\nimport \"./libraries/procedureLibrary.sol\";\n\ncontract Procedure is Kelsen(false,true) {\n\n    using ProcedureLibrary for ProcedureLibrary.ProcedureData;\n    ProcedureLibrary.ProcedureData public procedureData;\n\n    // Stores factory that created the procedure.\n    address public factory;\n\n    constructor (bytes32 _metadataIpfsHash, uint8 _metadataHashFunction, uint8 _metadataHashSize)\n        public\n    {\n        factory = msg.sender;\n        procedureData.init(_metadataIpfsHash, _metadataHashFunction, _metadataHashSize);\n    }\n\n    function updateMetadata(bytes32 _ipfsHash, uint8 _hashFunction, uint8 _hashSize)\n        public\n    {\n        procedureData.updateMetadata(_ipfsHash, _hashFunction, _hashSize);\n    }\n\n    function updateAdmin(address payable _admin)\n        public\n    {\n        procedureData.updateAdmin(_admin);\n    }\n}",
  "sourcePath": "/Users/alex/Code/organigr.am/kelsen/contracts/Procedure.sol",
  "compiler": {
    "name": "solc",
    "version": "0.5.12+commit.7709ece9.Emscripten.clang"
  },
  "schemaVersion": "3.0.19",
  "updatedAt": "2020-03-08T14:18:42.719Z",
  "devdoc": {
    "methods": {}
  },
  "userdoc": {
    "methods": {}
  }
}