{
  "contractName": "SimpleAdminAndMasterNominationProcedureFactory",
  "abi": [
    {
      "anonymous": false,
      "inputs": [
        {
          "indexed": false,
          "internalType": "address",
          "name": "_from",
          "type": "address"
        },
        {
          "indexed": false,
          "internalType": "address",
          "name": "_address",
          "type": "address"
        }
      ],
      "name": "procedureRegistered",
      "type": "event"
    },
    {
      "constant": true,
      "inputs": [],
      "name": "owner",
      "outputs": [
        {
          "internalType": "address",
          "name": "",
          "type": "address"
        }
      ],
      "payable": false,
      "stateMutability": "view",
      "type": "function"
    },
    {
      "constant": true,
      "inputs": [
        {
          "internalType": "uint256",
          "name": "",
          "type": "uint256"
        }
      ],
      "name": "procedures",
      "outputs": [
        {
          "internalType": "address",
          "name": "",
          "type": "address"
        }
      ],
      "payable": false,
      "stateMutability": "view",
      "type": "function"
    },
    {
      "constant": false,
      "inputs": [
        {
          "internalType": "bytes32",
          "name": "_metadataIpfsHash",
          "type": "bytes32"
        },
        {
          "internalType": "uint8",
          "name": "_metadataHashFunction",
          "type": "uint8"
        },
        {
          "internalType": "uint8",
          "name": "_metadataHashSize",
          "type": "uint8"
        },
        {
          "internalType": "address payable",
          "name": "_authorizedNominatersOrgan",
          "type": "address"
        }
      ],
      "name": "createProcedure",
      "outputs": [
        {
          "internalType": "address",
          "name": "",
          "type": "address"
        }
      ],
      "payable": false,
      "stateMutability": "nonpayable",
      "type": "function"
    },
    {
      "constant": true,
      "inputs": [],
      "name": "createProcedure",
      "outputs": [],
      "payable": false,
      "stateMutability": "pure",
      "type": "function"
    }
  ],
  "bytecode": "0x6080604052336000806101000a81548173ffffffffffffffffffffffffffffffffffffffff021916908373ffffffffffffffffffffffffffffffffffffffff1602179055506116dd806100536000396000f3fe608060405234801561001057600080fd5b506004361061004c5760003560e01c80635ff019d6146100515780636996c27b146100f95780638b4556ae146101035780638da5cb5b14610171575b600080fd5b6100b76004803603608081101561006757600080fd5b8101908080359060200190929190803560ff169060200190929190803560ff169060200190929190803573ffffffffffffffffffffffffffffffffffffffff1690602001909291905050506101bb565b604051808273ffffffffffffffffffffffffffffffffffffffff1673ffffffffffffffffffffffffffffffffffffffff16815260200191505060405180910390f35b610101610258565b005b61012f6004803603602081101561011957600080fd5b81019080803590602001909291905050506102a9565b604051808273ffffffffffffffffffffffffffffffffffffffff1673ffffffffffffffffffffffffffffffffffffffff16815260200191505060405180910390f35b6101796102e5565b604051808273ffffffffffffffffffffffffffffffffffffffff1673ffffffffffffffffffffffffffffffffffffffff16815260200191505060405180910390f35b600080858585856040516101ce90610411565b808581526020018460ff1660ff1681526020018360ff1660ff1681526020018273ffffffffffffffffffffffffffffffffffffffff1673ffffffffffffffffffffffffffffffffffffffff168152602001945050505050604051809103906000f080158015610241573d6000803e3d6000fd5b50905061024d8161030a565b915050949350505050565b6040517f08c379a00000000000000000000000000000000000000000000000000000000081526004018080602001828103825260318152602001806116786031913960400191505060405180910390fd5b600181815481106102b657fe5b906000526020600020016000915054906101000a900473ffffffffffffffffffffffffffffffffffffffff1681565b6000809054906101000a900473ffffffffffffffffffffffffffffffffffffffff1681565b600060018290806001815401808255809150509060018203906000526020600020016000909192909190916101000a81548173ffffffffffffffffffffffffffffffffffffffff021916908373ffffffffffffffffffffffffffffffffffffffff160217905550507f1d90f3ee35c4429c4301faa5d0d18f0bd2c54cab755c6396e541a11098a6fe403383604051808373ffffffffffffffffffffffffffffffffffffffff1673ffffffffffffffffffffffffffffffffffffffff1681526020018273ffffffffffffffffffffffffffffffffffffffff1673ffffffffffffffffffffffffffffffffffffffff1681526020019250505060405180910390a1819050919050565b6112598061041f8339019056fe608060405260036000806101000a81548160ff021916908360ff16021790555034801561002b57600080fd5b506040516112593803806112598339818101604052608081101561004e57600080fd5b81019080805190602001909291908051906020019092919080519060200190929190805190602001909291905050508383836000600181600060016101000a81548160ff02191690831515021790555080600060026101000a81548160ff021916908315150217905550505033600360006101000a81548173ffffffffffffffffffffffffffffffffffffffff021916908373ffffffffffffffffffffffffffffffffffffffff160217905550600173__ProcedureLibrary______________________63359a395d90918585856040518563ffffffff1660e01b8152600401808581526020018481526020018360ff1660ff1681526020018260ff1660ff16815260200194505050505060006040518083038186803b15801561017157600080fd5b505af4158015610185573d6000803e3d6000fd5b5050505050505080600460006101000a81548173ffffffffffffffffffffffffffffffffffffffff021916908373ffffffffffffffffffffffffffffffffffffffff160217905550600173__ProcedureLibrary______________________638e956e929091836040518363ffffffff1660e01b8152600401808381526020018273ffffffffffffffffffffffffffffffffffffffff1673ffffffffffffffffffffffffffffffffffffffff1681526020019250505060006040518083038186803b15801561025357600080fd5b505af4158015610267573d6000803e3d6000fd5b5050505050505050610fdb8061027e6000396000f3fe608060405234801561001057600080fd5b50600436106100f55760003560e01c80636216113111610097578063a587f93611610066578063a587f93614610555578063c45a01551461059f578063c91ebea8146105e9578063e2f273bd1461060b576100f5565b80636216113114610417578063759913d61461047b57806390f2ee221461049f578063a14db352146104c1576100f5565b806339c2ae70116100d357806339c2ae70146102145780633a00f8ec1461025c57806345344a3b146103105780635b07cda5146103ac576100f5565b8063249abcf7146100fa578063268959e51461013457806333754ae614610198575b600080fd5b61010261064f565b6040518084151515158152602001831515151581526020018260ff1660ff168152602001935050505060405180910390f35b6101966004803603604081101561014a57600080fd5b81019080803573ffffffffffffffffffffffffffffffffffffffff169060200190929190803573ffffffffffffffffffffffffffffffffffffffff16906020019092919050505061068d565b005b610212600480360360808110156101ae57600080fd5b81019080803573ffffffffffffffffffffffffffffffffffffffff169060200190929190803573ffffffffffffffffffffffffffffffffffffffff169060200190929190803515159060200190929190803515159060200190929190505050610759565b005b61025a6004803603606081101561022a57600080fd5b8101908080359060200190929190803560ff169060200190929190803560ff16906020019092919050505061083f565b005b61030e600480360360e081101561027257600080fd5b81019080803573ffffffffffffffffffffffffffffffffffffffff169060200190929190803573ffffffffffffffffffffffffffffffffffffffff169060200190929190803573ffffffffffffffffffffffffffffffffffffffff1690602001909291908035151590602001909291908035151590602001909291908035151590602001909291908035151590602001909291905050506108d2565b005b6103aa600480360360a081101561032657600080fd5b81019080803573ffffffffffffffffffffffffffffffffffffffff169060200190929190803573ffffffffffffffffffffffffffffffffffffffff169060200190929190803573ffffffffffffffffffffffffffffffffffffffff169060200190929190803515159060200190929190803515159060200190929190505050610a07565b005b6103b4610b22565b604051808581526020018460ff1660ff1681526020018360ff1660ff1681526020018273ffffffffffffffffffffffffffffffffffffffff1673ffffffffffffffffffffffffffffffffffffffff16815260200194505050505060405180910390f35b6104796004803603604081101561042d57600080fd5b81019080803573ffffffffffffffffffffffffffffffffffffffff169060200190929190803573ffffffffffffffffffffffffffffffffffffffff169060200190929190505050610b7a565b005b610483610c46565b604051808260ff1660ff16815260200191505060405180910390f35b6104a7610c58565b604051808215151515815260200191505060405180910390f35b610553600480360360c08110156104d757600080fd5b81019080803573ffffffffffffffffffffffffffffffffffffffff169060200190929190803573ffffffffffffffffffffffffffffffffffffffff169060200190929190803515159060200190929190803515159060200190929190803515159060200190929190803515159060200190929190505050610c6b565b005b61055d610d6b565b604051808273ffffffffffffffffffffffffffffffffffffffff1673ffffffffffffffffffffffffffffffffffffffff16815260200191505060405180910390f35b6105a7610d91565b604051808273ffffffffffffffffffffffffffffffffffffffff1673ffffffffffffffffffffffffffffffffffffffff16815260200191505060405180910390f35b6105f1610db7565b604051808215151515815260200191505060405180910390f35b61064d6004803603602081101561062157600080fd5b81019080803573ffffffffffffffffffffffffffffffffffffffff169060200190929190505050610dca565b005b60008060008060019054906101000a900460ff16600060029054906101000a900460ff166000809054906101000a900460ff16925092509250909192565b6106b8600460009054906101000a900473ffffffffffffffffffffffffffffffffffffffff16610e6b565b60008290508073ffffffffffffffffffffffffffffffffffffffff16631785f53c836040518263ffffffff1660e01b8152600401808273ffffffffffffffffffffffffffffffffffffffff1673ffffffffffffffffffffffffffffffffffffffff168152602001915050600060405180830381600087803b15801561073c57600080fd5b505af1158015610750573d6000803e3d6000fd5b50505050505050565b610784600460009054906101000a900473ffffffffffffffffffffffffffffffffffffffff16610e6b565b60008490508073ffffffffffffffffffffffffffffffffffffffff16633f7819a18585856040518463ffffffff1660e01b8152600401808473ffffffffffffffffffffffffffffffffffffffff1673ffffffffffffffffffffffffffffffffffffffff16815260200183151515158152602001821515151581526020019350505050600060405180830381600087803b15801561082057600080fd5b505af1158015610834573d6000803e3d6000fd5b505050505050505050565b600173__ProcedureLibrary______________________63b8cc9a0290918585856040518563ffffffff1660e01b8152600401808581526020018481526020018360ff1660ff1681526020018260ff1660ff16815260200194505050505060006040518083038186803b1580156108b557600080fd5b505af41580156108c9573d6000803e3d6000fd5b50505050505050565b6108fd600460009054906101000a900473ffffffffffffffffffffffffffffffffffffffff16610e6b565b60008790508073ffffffffffffffffffffffffffffffffffffffff166371e7f3748888888888886040518763ffffffff1660e01b8152600401808773ffffffffffffffffffffffffffffffffffffffff1673ffffffffffffffffffffffffffffffffffffffff1681526020018673ffffffffffffffffffffffffffffffffffffffff1673ffffffffffffffffffffffffffffffffffffffff168152602001851515151581526020018415151515815260200183151515158152602001821515151581526020019650505050505050600060405180830381600087803b1580156109e557600080fd5b505af11580156109f9573d6000803e3d6000fd5b505050505050505050505050565b610a32600460009054906101000a900473ffffffffffffffffffffffffffffffffffffffff16610e6b565b60008590508073ffffffffffffffffffffffffffffffffffffffff16636f2a4d5f868686866040518563ffffffff1660e01b8152600401808573ffffffffffffffffffffffffffffffffffffffff1673ffffffffffffffffffffffffffffffffffffffff1681526020018473ffffffffffffffffffffffffffffffffffffffff1673ffffffffffffffffffffffffffffffffffffffff1681526020018315151515815260200182151515158152602001945050505050600060405180830381600087803b158015610b0257600080fd5b505af1158015610b16573d6000803e3d6000fd5b50505050505050505050565b60018060000154908060010160009054906101000a900460ff16908060010160019054906101000a900460ff16908060010160029054906101000a900473ffffffffffffffffffffffffffffffffffffffff16905084565b610ba5600460009054906101000a900473ffffffffffffffffffffffffffffffffffffffff16610e6b565b60008290508073ffffffffffffffffffffffffffffffffffffffff1663e2a2f0a3836040518263ffffffff1660e01b8152600401808273ffffffffffffffffffffffffffffffffffffffff1673ffffffffffffffffffffffffffffffffffffffff168152602001915050600060405180830381600087803b158015610c2957600080fd5b505af1158015610c3d573d6000803e3d6000fd5b50505050505050565b6000809054906101000a900460ff1681565b600060019054906101000a900460ff1681565b610c96600460009054906101000a900473ffffffffffffffffffffffffffffffffffffffff16610e6b565b60008690508073ffffffffffffffffffffffffffffffffffffffff166379524d2d87878787876040518663ffffffff1660e01b8152600401808673ffffffffffffffffffffffffffffffffffffffff1673ffffffffffffffffffffffffffffffffffffffff1681526020018515151515815260200184151515158152602001831515151581526020018215151515815260200195505050505050600060405180830381600087803b158015610d4a57600080fd5b505af1158015610d5e573d6000803e3d6000fd5b5050505050505050505050565b600460009054906101000a900473ffffffffffffffffffffffffffffffffffffffff1681565b600360009054906101000a900473ffffffffffffffffffffffffffffffffffffffff1681565b600060029054906101000a900460ff1681565b600173__ProcedureLibrary______________________638e956e929091836040518363ffffffff1660e01b8152600401808381526020018273ffffffffffffffffffffffffffffffffffffffff1673ffffffffffffffffffffffffffffffffffffffff1681526020019250505060006040518083038186803b158015610e5057600080fd5b505af4158015610e64573d6000803e3d6000fd5b5050505050565b600081905060008173ffffffffffffffffffffffffffffffffffffffff1663cbae782b336040518263ffffffff1660e01b8152600401808273ffffffffffffffffffffffffffffffffffffffff1673ffffffffffffffffffffffffffffffffffffffff16815260200191505060206040518083038186803b158015610eef57600080fd5b505afa158015610f03573d6000803e3d6000fd5b505050506040513d6020811015610f1957600080fd5b81019080805190602001909291905050501415610f9e576040517f08c379a000000000000000000000000000000000000000000000000000000000815260040180806020018281038252600f8152602001807f4e6f7420617574686f72697a65642e000000000000000000000000000000000081525060200191505060405180910390fd5b60009050505056fea265627a7a72315820216e56505f2fd8d2b14e8b99e349b98dc78d99d76b12034dcf288cda33e3d5f064736f6c634300050c0032466163746f7279206d757374206f76657272696465207468652063726561746550726f636564757265206d6574686f642ea265627a7a72315820d4f1dfc517fd4c99f587d428fd56e346d6bab1b0ece4b0aa14d2d360bf6c0dcd64736f6c634300050c0032",
  "source": "pragma solidity >=0.4.22 <0.7.0;\n\n/// @title Standard contract for an admin and master nomination.\n\nimport \"../Procedure.sol\";\nimport \"../Organ.sol\";\nimport \"../ProcedureFactory.sol\";\n\ncontract SimpleAdminAndMasterNominationProcedure is Procedure {\n\n    address payable public authorizedNominatersOrgan;\n\n    constructor (\n        bytes32 _metadataIpfsHash, uint8 _metadataHashFunction, uint8 _metadataHashSize,\n        address payable _authorizedNominatersOrgan\n    ) Procedure (_metadataIpfsHash, _metadataHashFunction, _metadataHashSize)\n        public\n    {\n        authorizedNominatersOrgan = _authorizedNominatersOrgan;\n        // Set members of authorizedNominatersOrgan as admins.\n        procedureData.updateAdmin(_authorizedNominatersOrgan);\n    }\n\n    function addAdmin(\n        address payable _organToReform, address _newAdmin,\n        bool _canAdd, bool _canRemove, bool _canDeposit, bool _canWithdraw\n    )\n        public\n    {\n        // Checking if caller is an admin.\n        ProcedureLibrary.checkAuthorization(authorizedNominatersOrgan);\n\n        // Sending the required command to the desired organ.\n        Organ organToReformInstance = Organ(_organToReform);\n        organToReformInstance.addAdmin(_newAdmin, _canAdd, _canRemove, _canDeposit, _canWithdraw);\n    }\n\n    function removeAdmin(address payable _organToReform, address _oldAdmin)\n        public\n    {\n        // Checking if caller is an admin.\n        ProcedureLibrary.checkAuthorization(authorizedNominatersOrgan);\n\n        // Sending the required command to the desired organ.\n        Organ organToReformInstance = Organ(_organToReform);\n        organToReformInstance.removeAdmin(_oldAdmin);\n    }\n\n    function replaceAdmin(\n        address payable _organToReform, address _oldAdmin, address _newAdmin,\n        bool _canAdd, bool _canRemove, bool _canDeposit, bool _canWithdraw\n    )\n        public\n    {\n        // Checking if caller is an admin.\n        ProcedureLibrary.checkAuthorization(authorizedNominatersOrgan);\n\n        // Sending the required command to the desired organ.\n        Organ organToReformInstance = Organ(_organToReform);\n        organToReformInstance.replaceAdmin(_oldAdmin, _newAdmin, _canAdd, _canRemove, _canDeposit, _canWithdraw);\n    }\n\n    function addMaster(address payable _organToReform, address _newMaster, bool _canAdd, bool _canRemove)\n        public\n    {\n        // Checking if caller is an admin.\n        ProcedureLibrary.checkAuthorization(authorizedNominatersOrgan);\n\n        // Sending the required command to the desired organ.\n        Organ organToReformInstance = Organ(_organToReform);\n        organToReformInstance.addMaster(_newMaster, _canAdd, _canRemove);\n    }\n\n    function removeMaster(address payable _organToReform, address _oldMaster)\n        public\n    {\n\n        // Checking if caller is an admin.\n        ProcedureLibrary.checkAuthorization(authorizedNominatersOrgan);\n\n        // Sending the required command to the desired organ.\n        Organ organToReformInstance = Organ(_organToReform);\n        organToReformInstance.removeMaster(_oldMaster);\n    }\n\n    function replaceMaster(address payable _organToReform, address _oldMaster, address _newMaster, bool _canAdd, bool _canRemove)\n        public\n    {\n        // Checking if caller is an admin.\n        ProcedureLibrary.checkAuthorization(authorizedNominatersOrgan);\n\n        // Sending the required command to the desired organ.\n        Organ organToReformInstance = Organ(_organToReform);\n        organToReformInstance.replaceMaster(_oldMaster, _newMaster, _canAdd, _canRemove);\n    }\n}\n\ncontract SimpleAdminAndMasterNominationProcedureFactory is ProcedureFactory {\n    function createProcedure(\n        bytes32 _metadataIpfsHash, uint8 _metadataHashFunction, uint8 _metadataHashSize,\n        address payable _authorizedNominatersOrgan\n    )\n        public returns (address)\n    {\n        // @TODO : Add check that gas can cover deployment.\n        address _contractAddress = address(new SimpleAdminAndMasterNominationProcedure(\n            _metadataIpfsHash, _metadataHashFunction, _metadataHashSize,\n            _authorizedNominatersOrgan\n        ));\n        // Call ProcedureFactory.registerProcedure to register the new contract and returns an address.\n        return registerProcedure(_contractAddress);\n    }\n}",
  "sourcePath": "/Users/alex/Code/organigr.am/kelsen/contracts/procedures/SimpleAdminAndMasterNomination.sol",
  "compiler": {
    "name": "solc",
    "version": "0.5.12+commit.7709ece9.Emscripten.clang"
  },
  "schemaVersion": "3.0.19",
  "updatedAt": "2020-03-08T14:18:42.825Z",
  "devdoc": {
    "methods": {}
  },
  "userdoc": {
    "methods": {}
  }
}