{
  "contractName": "SimpleNormNominationProcedure",
  "abi": [
    {
      "inputs": [
        {
          "internalType": "bytes32",
          "name": "_metadataIpfsHash",
          "type": "bytes32"
        },
        {
          "internalType": "uint8",
          "name": "_metadataHashFunction",
          "type": "uint8"
        },
        {
          "internalType": "uint8",
          "name": "_metadataHashSize",
          "type": "uint8"
        },
        {
          "internalType": "address payable",
          "name": "_authorizedNominatersOrgan",
          "type": "address"
        }
      ],
      "payable": false,
      "stateMutability": "nonpayable",
      "type": "constructor"
    },
    {
      "constant": true,
      "inputs": [],
      "name": "authorizedNominatersOrgan",
      "outputs": [
        {
          "internalType": "address payable",
          "name": "",
          "type": "address"
        }
      ],
      "payable": false,
      "stateMutability": "view",
      "type": "function"
    },
    {
      "constant": true,
      "inputs": [],
      "name": "factory",
      "outputs": [
        {
          "internalType": "address",
          "name": "",
          "type": "address"
        }
      ],
      "payable": false,
      "stateMutability": "view",
      "type": "function"
    },
    {
      "constant": true,
      "inputs": [],
      "name": "getKelsenData",
      "outputs": [
        {
          "internalType": "bool",
          "name": "_isOrgan",
          "type": "bool"
        },
        {
          "internalType": "bool",
          "name": "_isProcedure",
          "type": "bool"
        },
        {
          "internalType": "uint8",
          "name": "_version",
          "type": "uint8"
        }
      ],
      "payable": false,
      "stateMutability": "view",
      "type": "function"
    },
    {
      "constant": true,
      "inputs": [],
      "name": "isOrgan",
      "outputs": [
        {
          "internalType": "bool",
          "name": "",
          "type": "bool"
        }
      ],
      "payable": false,
      "stateMutability": "view",
      "type": "function"
    },
    {
      "constant": true,
      "inputs": [],
      "name": "isProcedure",
      "outputs": [
        {
          "internalType": "bool",
          "name": "",
          "type": "bool"
        }
      ],
      "payable": false,
      "stateMutability": "view",
      "type": "function"
    },
    {
      "constant": true,
      "inputs": [],
      "name": "kelsenVersion",
      "outputs": [
        {
          "internalType": "uint8",
          "name": "",
          "type": "uint8"
        }
      ],
      "payable": false,
      "stateMutability": "view",
      "type": "function"
    },
    {
      "constant": true,
      "inputs": [],
      "name": "procedureData",
      "outputs": [
        {
          "internalType": "bytes32",
          "name": "metadataIpfsHash",
          "type": "bytes32"
        },
        {
          "internalType": "uint8",
          "name": "metadataHashFunction",
          "type": "uint8"
        },
        {
          "internalType": "uint8",
          "name": "metadataHashSize",
          "type": "uint8"
        },
        {
          "internalType": "address payable",
          "name": "admin",
          "type": "address"
        }
      ],
      "payable": false,
      "stateMutability": "view",
      "type": "function"
    },
    {
      "constant": false,
      "inputs": [
        {
          "internalType": "address payable",
          "name": "_admin",
          "type": "address"
        }
      ],
      "name": "updateAdmin",
      "outputs": [],
      "payable": false,
      "stateMutability": "nonpayable",
      "type": "function"
    },
    {
      "constant": false,
      "inputs": [
        {
          "internalType": "bytes32",
          "name": "_ipfsHash",
          "type": "bytes32"
        },
        {
          "internalType": "uint8",
          "name": "_hashFunction",
          "type": "uint8"
        },
        {
          "internalType": "uint8",
          "name": "_hashSize",
          "type": "uint8"
        }
      ],
      "name": "updateMetadata",
      "outputs": [],
      "payable": false,
      "stateMutability": "nonpayable",
      "type": "function"
    },
    {
      "constant": false,
      "inputs": [
        {
          "internalType": "address payable",
          "name": "_targetOrgan",
          "type": "address"
        },
        {
          "internalType": "address payable",
          "name": "_normAdress",
          "type": "address"
        },
        {
          "internalType": "bytes32",
          "name": "_ipfsHash",
          "type": "bytes32"
        },
        {
          "internalType": "uint8",
          "name": "_hashFunction",
          "type": "uint8"
        },
        {
          "internalType": "uint8",
          "name": "_hashSize",
          "type": "uint8"
        }
      ],
      "name": "addNorm",
      "outputs": [
        {
          "internalType": "uint256",
          "name": "normIndex",
          "type": "uint256"
        }
      ],
      "payable": false,
      "stateMutability": "nonpayable",
      "type": "function"
    },
    {
      "constant": false,
      "inputs": [
        {
          "internalType": "address payable",
          "name": "_targetOrgan",
          "type": "address"
        },
        {
          "internalType": "uint256",
          "name": "_normIndex",
          "type": "uint256"
        }
      ],
      "name": "removeNorm",
      "outputs": [],
      "payable": false,
      "stateMutability": "nonpayable",
      "type": "function"
    },
    {
      "constant": false,
      "inputs": [
        {
          "internalType": "address payable",
          "name": "_targetOrgan",
          "type": "address"
        },
        {
          "internalType": "uint256",
          "name": "_oldNormIndex",
          "type": "uint256"
        },
        {
          "internalType": "address payable",
          "name": "_newNormAdress",
          "type": "address"
        },
        {
          "internalType": "bytes32",
          "name": "_ipfsHash",
          "type": "bytes32"
        },
        {
          "internalType": "uint8",
          "name": "_hashFunction",
          "type": "uint8"
        },
        {
          "internalType": "uint8",
          "name": "_hashSize",
          "type": "uint8"
        }
      ],
      "name": "replaceNorm",
      "outputs": [],
      "payable": false,
      "stateMutability": "nonpayable",
      "type": "function"
    }
  ],
  "bytecode": "0x608060405260036000806101000a81548160ff021916908360ff16021790555034801561002b57600080fd5b50604051610d56380380610d568339818101604052608081101561004e57600080fd5b81019080805190602001909291908051906020019092919080519060200190929190805190602001909291905050508383836000600181600060016101000a81548160ff02191690831515021790555080600060026101000a81548160ff021916908315150217905550505033600360006101000a81548173ffffffffffffffffffffffffffffffffffffffff021916908373ffffffffffffffffffffffffffffffffffffffff160217905550600173__ProcedureLibrary______________________63359a395d90918585856040518563ffffffff1660e01b8152600401808581526020018481526020018360ff1660ff1681526020018260ff1660ff16815260200194505050505060006040518083038186803b15801561017157600080fd5b505af4158015610185573d6000803e3d6000fd5b5050505050505080600460006101000a81548173ffffffffffffffffffffffffffffffffffffffff021916908373ffffffffffffffffffffffffffffffffffffffff160217905550600173__ProcedureLibrary______________________638e956e929091836040518363ffffffff1660e01b8152600401808381526020018273ffffffffffffffffffffffffffffffffffffffff1673ffffffffffffffffffffffffffffffffffffffff1681526020019250505060006040518083038186803b15801561025357600080fd5b505af4158015610267573d6000803e3d6000fd5b5050505050505050610ad88061027e6000396000f3fe608060405234801561001057600080fd5b50600436106100b45760003560e01c80639974cd14116100715780639974cd1414610288578063a587f9361461031a578063c45a015514610364578063c91ebea8146103ae578063ced843f2146103d0578063e2f273bd1461041e576100b4565b8063249abcf7146100b957806339c2ae70146100f3578063494e3d681461013b5780635b07cda5146101d7578063759913d61461024257806390f2ee2214610266575b600080fd5b6100c1610462565b6040518084151515158152602001831515151581526020018260ff1660ff168152602001935050505060405180910390f35b6101396004803603606081101561010957600080fd5b8101908080359060200190929190803560ff169060200190929190803560ff1690602001909291905050506104a0565b005b6101c1600480360360a081101561015157600080fd5b81019080803573ffffffffffffffffffffffffffffffffffffffff169060200190929190803573ffffffffffffffffffffffffffffffffffffffff16906020019092919080359060200190929190803560ff169060200190929190803560ff169060200190929190505050610533565b6040518082815260200191505060405180910390f35b6101df61064f565b604051808581526020018460ff1660ff1681526020018360ff1660ff1681526020018273ffffffffffffffffffffffffffffffffffffffff1673ffffffffffffffffffffffffffffffffffffffff16815260200194505050505060405180910390f35b61024a6106a7565b604051808260ff1660ff16815260200191505060405180910390f35b61026e6106b9565b604051808215151515815260200191505060405180910390f35b610318600480360360c081101561029e57600080fd5b81019080803573ffffffffffffffffffffffffffffffffffffffff16906020019092919080359060200190929190803573ffffffffffffffffffffffffffffffffffffffff16906020019092919080359060200190929190803560ff169060200190929190803560ff1690602001909291905050506106cc565b005b6103226107c8565b604051808273ffffffffffffffffffffffffffffffffffffffff1673ffffffffffffffffffffffffffffffffffffffff16815260200191505060405180910390f35b61036c6107ee565b604051808273ffffffffffffffffffffffffffffffffffffffff1673ffffffffffffffffffffffffffffffffffffffff16815260200191505060405180910390f35b6103b6610814565b604051808215151515815260200191505060405180910390f35b61041c600480360360408110156103e657600080fd5b81019080803573ffffffffffffffffffffffffffffffffffffffff16906020019092919080359060200190929190505050610827565b005b6104606004803603602081101561043457600080fd5b81019080803573ffffffffffffffffffffffffffffffffffffffff1690602001909291905050506108c7565b005b60008060008060019054906101000a900460ff16600060029054906101000a900460ff166000809054906101000a900460ff16925092509250909192565b600173__ProcedureLibrary______________________63b8cc9a0290918585856040518563ffffffff1660e01b8152600401808581526020018481526020018360ff1660ff1681526020018260ff1660ff16815260200194505050505060006040518083038186803b15801561051657600080fd5b505af415801561052a573d6000803e3d6000fd5b50505050505050565b6000610560600460009054906101000a900473ffffffffffffffffffffffffffffffffffffffff16610968565b60008690508073ffffffffffffffffffffffffffffffffffffffff1663a08c3cb5878787876040518563ffffffff1660e01b8152600401808573ffffffffffffffffffffffffffffffffffffffff1673ffffffffffffffffffffffffffffffffffffffff1681526020018481526020018360ff1660ff1681526020018260ff1660ff168152602001945050505050602060405180830381600087803b15801561060857600080fd5b505af115801561061c573d6000803e3d6000fd5b505050506040513d602081101561063257600080fd5b810190808051906020019092919050505091505095945050505050565b60018060000154908060010160009054906101000a900460ff16908060010160019054906101000a900460ff16908060010160029054906101000a900473ffffffffffffffffffffffffffffffffffffffff16905084565b6000809054906101000a900460ff1681565b600060019054906101000a900460ff1681565b6106f7600460009054906101000a900473ffffffffffffffffffffffffffffffffffffffff16610968565b60008690508073ffffffffffffffffffffffffffffffffffffffff16636c49e08787878787876040518663ffffffff1660e01b8152600401808681526020018573ffffffffffffffffffffffffffffffffffffffff1673ffffffffffffffffffffffffffffffffffffffff1681526020018481526020018360ff1660ff1681526020018260ff1660ff16815260200195505050505050600060405180830381600087803b1580156107a757600080fd5b505af11580156107bb573d6000803e3d6000fd5b5050505050505050505050565b600460009054906101000a900473ffffffffffffffffffffffffffffffffffffffff1681565b600360009054906101000a900473ffffffffffffffffffffffffffffffffffffffff1681565b600060029054906101000a900460ff1681565b610852600460009054906101000a900473ffffffffffffffffffffffffffffffffffffffff16610968565b60008290508073ffffffffffffffffffffffffffffffffffffffff16636091112d836040518263ffffffff1660e01b815260040180828152602001915050600060405180830381600087803b1580156108aa57600080fd5b505af11580156108be573d6000803e3d6000fd5b50505050505050565b600173__ProcedureLibrary______________________638e956e929091836040518363ffffffff1660e01b8152600401808381526020018273ffffffffffffffffffffffffffffffffffffffff1673ffffffffffffffffffffffffffffffffffffffff1681526020019250505060006040518083038186803b15801561094d57600080fd5b505af4158015610961573d6000803e3d6000fd5b5050505050565b600081905060008173ffffffffffffffffffffffffffffffffffffffff1663cbae782b336040518263ffffffff1660e01b8152600401808273ffffffffffffffffffffffffffffffffffffffff1673ffffffffffffffffffffffffffffffffffffffff16815260200191505060206040518083038186803b1580156109ec57600080fd5b505afa158015610a00573d6000803e3d6000fd5b505050506040513d6020811015610a1657600080fd5b81019080805190602001909291905050501415610a9b576040517f08c379a000000000000000000000000000000000000000000000000000000000815260040180806020018281038252600f8152602001807f4e6f7420617574686f72697a65642e000000000000000000000000000000000081525060200191505060405180910390fd5b60009050505056fea265627a7a72315820c23e630e8f44f3e369e3b011630edc8f0a561ea568c9ae6aefe1e06e3256cbbb64736f6c634300050c0032",
  "source": "pragma solidity >=0.4.22 <0.7.0;\n\n/// @title Standard contract for a norm nomination.\n\nimport \"../Procedure.sol\";\nimport \"../Organ.sol\";\nimport \"../ProcedureFactory.sol\";\n\ncontract SimpleNormNominationProcedure is Procedure {\n\n    address payable public authorizedNominatersOrgan;\n\n    constructor (\n        bytes32 _metadataIpfsHash, uint8 _metadataHashFunction, uint8 _metadataHashSize,\n        address payable _authorizedNominatersOrgan\n    ) Procedure (_metadataIpfsHash, _metadataHashFunction, _metadataHashSize)\n        public\n    {\n        authorizedNominatersOrgan = _authorizedNominatersOrgan;\n        // Set members of authorizedNominatersOrgan as admins.\n        procedureData.updateAdmin(_authorizedNominatersOrgan);\n    }\n\n    function addNorm(\n        address payable _targetOrgan, address payable _normAdress,\n        bytes32 _ipfsHash, uint8 _hashFunction, uint8 _hashSize\n    )\n        public returns (uint normIndex)\n    {\n        // Checking if caller is authorized.\n        ProcedureLibrary.checkAuthorization(authorizedNominatersOrgan);\n\n        // Sending the addNorm command to the desired organ.\n        Organ targetOrganInstance = Organ(_targetOrgan);\n        return targetOrganInstance.addNorm(_normAdress, _ipfsHash, _hashFunction, _hashSize);\n    }\n\n    function removeNorm(address payable _targetOrgan, uint _normIndex)\n        public\n    {\n        // Checking if caller is authorized.\n        ProcedureLibrary.checkAuthorization(authorizedNominatersOrgan);\n\n        // Sending the addNorm command to the desired organ.\n        Organ targetOrganInstance = Organ(_targetOrgan);\n        targetOrganInstance.removeNorm(_normIndex);\n    }\n\n    function replaceNorm(\n        address payable _targetOrgan, uint _oldNormIndex,\n        address payable _newNormAdress, bytes32 _ipfsHash, uint8 _hashFunction, uint8 _hashSize\n    )\n        public\n    {\n        // Checking if caller is authorized.\n        ProcedureLibrary.checkAuthorization(authorizedNominatersOrgan);\n\n        // Sending the replaceNorm command to the desired organ.\n        Organ targetOrganInstance = Organ(_targetOrgan);\n        targetOrganInstance.replaceNorm(_oldNormIndex, _newNormAdress, _ipfsHash, _hashFunction, _hashSize);\n    }\n}\n\ncontract SimpleNormNominationProcedureFactory is ProcedureFactory {\n    function createProcedure(\n        bytes32 _metadataIpfsHash, uint8 _metadataHashFunction, uint8 _metadataHashSize,\n        address payable _authorizedNominatersOrgan\n    )\n        public returns (address)\n    {\n        // @TODO : Add check that gas can cover deployment.\n        address _contractAddress = address(new SimpleNormNominationProcedure(\n            _metadataIpfsHash, _metadataHashFunction, _metadataHashSize,\n            _authorizedNominatersOrgan\n        ));\n        // Call ProcedureFactory.registerProcedure to register the new contract and returns an address.\n        return registerProcedure(_contractAddress);\n    }\n}",
  "sourcePath": "/Users/alex/Code/organigr.am/kelsen/contracts/procedures/SimpleNormNomination.sol",
  "compiler": {
    "name": "solc",
    "version": "0.5.12+commit.7709ece9.Emscripten.clang"
  },
  "schemaVersion": "3.0.19",
  "updatedAt": "2020-03-08T14:18:42.834Z",
  "devdoc": {
    "methods": {}
  },
  "userdoc": {
    "methods": {}
  }
}